{
  "_format": "hh-sol-artifact-1",
  "contractName": "UserSubscription",
  "sourceName": "contracts/UserSubscription.sol",
  "abi": [
    {
      "inputs": [
        {
          "internalType": "address",
          "name": "subscriber",
          "type": "address"
        },
        {
          "internalType": "address",
          "name": "payee",
          "type": "address"
        },
        {
          "internalType": "contract IERC777",
          "name": "token",
          "type": "address"
        },
        {
          "internalType": "address",
          "name": "usageOracle",
          "type": "address"
        }
      ],
      "stateMutability": "nonpayable",
      "type": "constructor"
    },
    {
      "inputs": [],
      "name": "activeSubscription",
      "outputs": [
        {
          "components": [
            {
              "internalType": "bytes32",
              "name": "id",
              "type": "bytes32"
            },
            {
              "internalType": "uint256",
              "name": "rate",
              "type": "uint256"
            },
            {
              "internalType": "uint256",
              "name": "createdAt",
              "type": "uint256"
            },
            {
              "internalType": "uint256",
              "name": "expiresAt",
              "type": "uint256"
            },
            {
              "internalType": "enum UserSubscription.SubscriptionStatus",
              "name": "status",
              "type": "uint8"
            }
          ],
          "internalType": "struct UserSubscription.Subscription",
          "name": "",
          "type": "tuple"
        }
      ],
      "stateMutability": "view",
      "type": "function"
    },
    {
      "inputs": [],
      "name": "activeSubscriptionExpiresAt",
      "outputs": [
        {
          "internalType": "uint256",
          "name": "",
          "type": "uint256"
        }
      ],
      "stateMutability": "view",
      "type": "function"
    },
    {
      "inputs": [],
      "name": "activeSubscriptionStatus",
      "outputs": [
        {
          "internalType": "uint8",
          "name": "",
          "type": "uint8"
        }
      ],
      "stateMutability": "view",
      "type": "function"
    },
    {
      "inputs": [],
      "name": "checker",
      "outputs": [
        {
          "internalType": "bool",
          "name": "canExec",
          "type": "bool"
        },
        {
          "internalType": "bytes",
          "name": "execPayload",
          "type": "bytes"
        }
      ],
      "stateMutability": "view",
      "type": "function"
    },
    {
      "inputs": [],
      "name": "distribute",
      "outputs": [],
      "stateMutability": "nonpayable",
      "type": "function"
    },
    {
      "inputs": [
        {
          "internalType": "uint256",
          "name": "createdAt",
          "type": "uint256"
        },
        {
          "internalType": "uint256",
          "name": "expiresAt",
          "type": "uint256"
        }
      ],
      "name": "newDailySubscription",
      "outputs": [],
      "stateMutability": "nonpayable",
      "type": "function"
    },
    {
      "inputs": [],
      "name": "notifyUsageReceived",
      "outputs": [],
      "stateMutability": "nonpayable",
      "type": "function"
    }
  ],
  "bytecode": "0x60a060405273c1c6805b857bef1f412519c4a842522431afed3973ffffffffffffffffffffffffffffffffffffffff1660809073ffffffffffffffffffffffffffffffffffffffff168152503480156200005857600080fd5b50604051620019753803806200197583398181016040528101906200007e919062000256565b83600560006101000a81548173ffffffffffffffffffffffffffffffffffffffff021916908373ffffffffffffffffffffffffffffffffffffffff16021790555082600660006101000a81548173ffffffffffffffffffffffffffffffffffffffff021916908373ffffffffffffffffffffffffffffffffffffffff16021790555081600760006101000a81548173ffffffffffffffffffffffffffffffffffffffff021916908373ffffffffffffffffffffffffffffffffffffffff16021790555080600860006101000a81548173ffffffffffffffffffffffffffffffffffffffff021916908373ffffffffffffffffffffffffffffffffffffffff1602179055506000600860146101000a81548160ff02191690831515021790555050505050620002c8565b600080fd5b600073ffffffffffffffffffffffffffffffffffffffff82169050919050565b6000620001d982620001ac565b9050919050565b620001eb81620001cc565b8114620001f757600080fd5b50565b6000815190506200020b81620001e0565b92915050565b60006200021e82620001cc565b9050919050565b620002308162000211565b81146200023c57600080fd5b50565b600081519050620002508162000225565b92915050565b60008060008060808587031215620002735762000272620001a7565b5b60006200028387828801620001fa565b94505060206200029687828801620001fa565b9350506040620002a9878288016200023f565b9250506060620002bc87828801620001fa565b91505092959194509250565b608051611691620002e4600039600061073401526116916000f3fe608060405234801561001057600080fd5b506004361061007d5760003560e01c80638ba9c5531161005b5780638ba9c553146100c6578063cf5303cf146100e4578063e4fc6b6d14610103578063fa276e851461010d5761007d565b80631aea10c2146100825780632d2713c0146100a05780633b0443f4146100bc575b600080fd5b61008a61012b565b6040516100979190610cdc565b60405180910390f35b6100ba60048036038101906100b59190610d32565b610156565b005b6100c4610581565b005b6100ce61062e565b6040516100db9190610e79565b60405180910390f35b6100ec6106ab565b6040516100fa929190610f48565b60405180910390f35b61010b610732565b005b610115610c70565b6040516101229190610f87565b60405180910390f35b60008060040160009054906101000a900460ff16600181111561015157610150610d9a565b5b905090565b600560009054906101000a900473ffffffffffffffffffffffffffffffffffffffff1673ffffffffffffffffffffffffffffffffffffffff163373ffffffffffffffffffffffffffffffffffffffff16146101e6576040517f08c379a00000000000000000000000000000000000000000000000000000000081526004016101dd90610fff565b60405180910390fd5b600760009054906101000a900473ffffffffffffffffffffffffffffffffffffffff1673ffffffffffffffffffffffffffffffffffffffff1663d95b637130336040518363ffffffff1660e01b8152600401610243929190611060565b602060405180830381865afa158015610260573d6000803e3d6000fd5b505050506040513d601f19601f8201168201806040525081019061028491906110b5565b6102c3576040517f08c379a00000000000000000000000000000000000000000000000000000000081526004016102ba90611154565b60405180910390fd5b808210610305576040517f08c379a00000000000000000000000000000000000000000000000000000000081526004016102fc906111e6565b60405180910390fd5b6000600181111561031957610318610d9a565b5b600060040160009054906101000a900460ff16600181111561033e5761033d610d9a565b5b1461037e576040517f08c379a000000000000000000000000000000000000000000000000000000000815260040161037590611252565b60405180910390fd5b6000338383604051602001610395939291906112db565b6040516020818303038152906040528051906020012090506000600860009054906101000a900473ffffffffffffffffffffffffffffffffffffffff1673ffffffffffffffffffffffffffffffffffffffff16633a301be86040518163ffffffff1660e01b8152600401602060405180830381865afa15801561041c573d6000803e3d6000fd5b505050506040513d601f19601f82011682018060405250810190610440919061132d565b905060006105a0826104529190611389565b9050600760009054906101000a900473ffffffffffffffffffffffffffffffffffffffff1673ffffffffffffffffffffffffffffffffffffffff166362ad1b833330846040518463ffffffff1660e01b81526004016104b393929190611409565b600060405180830381600087803b1580156104cd57600080fd5b505af11580156104e1573d6000803e3d6000fd5b505050506040518060a0016040528084815260200183815260200186815260200185815260200160018081111561051b5761051a610d9a565b5b815250600080820151816000015560208201518160010155604082015181600201556060820151816003015560808201518160040160006101000a81548160ff0219169083600181111561057257610571610d9a565b5b02179055509050505050505050565b600860009054906101000a900473ffffffffffffffffffffffffffffffffffffffff1673ffffffffffffffffffffffffffffffffffffffff163373ffffffffffffffffffffffffffffffffffffffff1614610611576040517f08c379a0000000000000000000000000000000000000000000000000000000008152600401610608906114b2565b60405180910390fd5b6001600860146101000a81548160ff021916908315150217905550565b610636610c7c565b60006040518060a0016040529081600082015481526020016001820154815260200160028201548152602001600382015481526020016004820160009054906101000a900460ff1660018111156106905761068f610d9a565b5b60018111156106a2576106a1610d9a565b5b81525050905090565b60006060600860149054906101000a900460ff16915063e4fc6b6d60e01b604051602401604051602081830303815290604052907bffffffffffffffffffffffffffffffffffffffffffffffffffffffff19166020820180517bffffffffffffffffffffffffffffffffffffffffffffffffffffffff838183161783525050505090509091565b7f000000000000000000000000000000000000000000000000000000000000000073ffffffffffffffffffffffffffffffffffffffff163373ffffffffffffffffffffffffffffffffffffffff16146107c0576040517f08c379a00000000000000000000000000000000000000000000000000000000081526004016107b79061151e565b60405180910390fd5b4260006003015410610807576040517f08c379a00000000000000000000000000000000000000000000000000000000081526004016107fe906115b0565b60405180910390fd5b6000600860009054906101000a900473ffffffffffffffffffffffffffffffffffffffff1673ffffffffffffffffffffffffffffffffffffffff1663125274e1306040518263ffffffff1660e01b815260040161086491906115d0565b602060405180830381865afa158015610881573d6000803e3d6000fd5b505050506040513d601f19601f820116820180604052508101906108a5919061132d565b905060008103610a0057600760009054906101000a900473ffffffffffffffffffffffffffffffffffffffff1673ffffffffffffffffffffffffffffffffffffffff16639bd9bbc6600560009054906101000a900473ffffffffffffffffffffffffffffffffffffffff16600760009054906101000a900473ffffffffffffffffffffffffffffffffffffffff1673ffffffffffffffffffffffffffffffffffffffff166370a08231306040518263ffffffff1660e01b815260040161096b91906115d0565b602060405180830381865afa158015610988573d6000803e3d6000fd5b505050506040513d601f19601f820116820180604052508101906109ac919061132d565b6040518363ffffffff1660e01b81526004016109c99291906115eb565b600060405180830381600087803b1580156109e357600080fd5b505af11580156109f7573d6000803e3d6000fd5b50505050610c25565b600081600060010154610a139190611389565b9050600081600760009054906101000a900473ffffffffffffffffffffffffffffffffffffffff1673ffffffffffffffffffffffffffffffffffffffff166370a08231306040518263ffffffff1660e01b8152600401610a7391906115d0565b602060405180830381865afa158015610a90573d6000803e3d6000fd5b505050506040513d601f19601f82011682018060405250810190610ab4919061132d565b610abe9190611627565b9050600760009054906101000a900473ffffffffffffffffffffffffffffffffffffffff1673ffffffffffffffffffffffffffffffffffffffff16639bd9bbc6600660009054906101000a900473ffffffffffffffffffffffffffffffffffffffff16846040518363ffffffff1660e01b8152600401610b3f9291906115eb565b600060405180830381600087803b158015610b5957600080fd5b505af1158015610b6d573d6000803e3d6000fd5b50505050600760009054906101000a900473ffffffffffffffffffffffffffffffffffffffff1673ffffffffffffffffffffffffffffffffffffffff16639bd9bbc6600560009054906101000a900473ffffffffffffffffffffffffffffffffffffffff16836040518363ffffffff1660e01b8152600401610bf09291906115eb565b600060405180830381600087803b158015610c0a57600080fd5b505af1158015610c1e573d6000803e3d6000fd5b5050505050505b6000600860146101000a81548160ff02191690831515021790555060008060040160006101000a81548160ff02191690836001811115610c6857610c67610d9a565b5b021790555050565b60008060030154905090565b6040518060a001604052806000801916815260200160008152602001600081526020016000815260200160006001811115610cba57610cb9610d9a565b5b81525090565b600060ff82169050919050565b610cd681610cc0565b82525050565b6000602082019050610cf16000830184610ccd565b92915050565b600080fd5b6000819050919050565b610d0f81610cfc565b8114610d1a57600080fd5b50565b600081359050610d2c81610d06565b92915050565b60008060408385031215610d4957610d48610cf7565b5b6000610d5785828601610d1d565b9250506020610d6885828601610d1d565b9150509250929050565b6000819050919050565b610d8581610d72565b82525050565b610d9481610cfc565b82525050565b7f4e487b7100000000000000000000000000000000000000000000000000000000600052602160045260246000fd5b60028110610dda57610dd9610d9a565b5b50565b6000819050610deb82610dc9565b919050565b6000610dfb82610ddd565b9050919050565b610e0b81610df0565b82525050565b60a082016000820151610e276000850182610d7c565b506020820151610e3a6020850182610d8b565b506040820151610e4d6040850182610d8b565b506060820151610e606060850182610d8b565b506080820151610e736080850182610e02565b50505050565b600060a082019050610e8e6000830184610e11565b92915050565b60008115159050919050565b610ea981610e94565b82525050565b600081519050919050565b600082825260208201905092915050565b60005b83811015610ee9578082015181840152602081019050610ece565b83811115610ef8576000848401525b50505050565b6000601f19601f8301169050919050565b6000610f1a82610eaf565b610f248185610eba565b9350610f34818560208601610ecb565b610f3d81610efe565b840191505092915050565b6000604082019050610f5d6000830185610ea0565b8181036020830152610f6f8184610f0f565b90509392505050565b610f8181610cfc565b82525050565b6000602082019050610f9c6000830184610f78565b92915050565b600082825260208201905092915050565b7f4f6e6c792063616c6c61626c6520627920737562736372696265722100000000600082015250565b6000610fe9601c83610fa2565b9150610ff482610fb3565b602082019050919050565b6000602082019050818103600083015261101881610fdc565b9050919050565b600073ffffffffffffffffffffffffffffffffffffffff82169050919050565b600061104a8261101f565b9050919050565b61105a8161103f565b82525050565b60006040820190506110756000830185611051565b6110826020830184611051565b9392505050565b61109281610e94565b811461109d57600080fd5b50565b6000815190506110af81611089565b92915050565b6000602082840312156110cb576110ca610cf7565b5b60006110d9848285016110a0565b91505092915050565b7f436f6e7472616374206973206e6f7420616e20617574686f72697a6564204f7060008201527f657261746f7220666f722063616c6c6572210000000000000000000000000000602082015250565b600061113e603283610fa2565b9150611149826110e2565b604082019050919050565b6000602082019050818103600083015261116d81611131565b9050919050565b7f537562736372697074696f6e2063616e6e6f7420657870697265206265666f7260008201527f65206372656174696f6e20646174652100000000000000000000000000000000602082015250565b60006111d0603083610fa2565b91506111db82611174565b604082019050919050565b600060208201905081810360008301526111ff816111c3565b9050919050565b7f537562736372697074696f6e20616c7265616479206163746976652100000000600082015250565b600061123c601c83610fa2565b915061124782611206565b602082019050919050565b6000602082019050818103600083015261126b8161122f565b9050919050565b60008160601b9050919050565b600061128a82611272565b9050919050565b600061129c8261127f565b9050919050565b6112b46112af8261103f565b611291565b82525050565b6000819050919050565b6112d56112d082610cfc565b6112ba565b82525050565b60006112e782866112a3565b6014820191506112f782856112c4565b60208201915061130782846112c4565b602082019150819050949350505050565b60008151905061132781610d06565b92915050565b60006020828403121561134357611342610cf7565b5b600061135184828501611318565b91505092915050565b7f4e487b7100000000000000000000000000000000000000000000000000000000600052601160045260246000fd5b600061139482610cfc565b915061139f83610cfc565b9250817fffffffffffffffffffffffffffffffffffffffffffffffffffffffffffffffff04831182151516156113d8576113d761135a565b5b828202905092915050565b50565b60006113f3600083610eba565b91506113fe826113e3565b600082019050919050565b600060a08201905061141e6000830186611051565b61142b6020830185611051565b6114386040830184610f78565b8181036060830152611449816113e6565b9050818103608083015261145c816113e6565b9050949350505050565b7f4f6e6c792063616c6c61626c65206279206f7261636c65210000000000000000600082015250565b600061149c601883610fa2565b91506114a782611466565b602082019050919050565b600060208201905081810360008301526114cb8161148f565b9050919050565b7f4f6e6c79204f7073000000000000000000000000000000000000000000000000600082015250565b6000611508600883610fa2565b9150611513826114d2565b602082019050919050565b60006020820190508181036000830152611537816114fb565b9050919050565b7f537562736372697074696f6e20686173206e6f7420657870697265642079657460008201527f2e00000000000000000000000000000000000000000000000000000000000000602082015250565b600061159a602183610fa2565b91506115a58261153e565b604082019050919050565b600060208201905081810360008301526115c98161158d565b9050919050565b60006020820190506115e56000830184611051565b92915050565b60006060820190506116006000830185611051565b61160d6020830184610f78565b818103604083015261161e816113e6565b90509392505050565b600061163282610cfc565b915061163d83610cfc565b9250828210156116505761164f61135a565b5b82820390509291505056fea2646970667358221220e1ca1d1461723aeb0971a31a12f5719c990e86cf1d4aee4655e0f0906e01f7e264736f6c634300080e0033",
  "linkReferences": {},
  "deployedLinkReferences": {}
}