{
  "_format": "hh-sol-artifact-1",
  "contractName": "usingProvable",
  "sourceName": "contracts/provableAPI.sol",
  "abi": [
    {
      "inputs": [
        {
          "internalType": "bytes32",
          "name": "_myid",
          "type": "bytes32"
        },
        {
          "internalType": "string",
          "name": "_result",
          "type": "string"
        }
      ],
      "name": "__callback",
      "outputs": [],
      "stateMutability": "nonpayable",
      "type": "function"
    },
    {
      "inputs": [
        {
          "internalType": "bytes32",
          "name": "_myid",
          "type": "bytes32"
        },
        {
          "internalType": "string",
          "name": "_result",
          "type": "string"
        },
        {
          "internalType": "bytes",
          "name": "_proof",
          "type": "bytes"
        }
      ],
      "name": "__callback",
      "outputs": [],
      "stateMutability": "nonpayable",
      "type": "function"
    }
  ],
  "bytecode": "0x608060405234801561001057600080fd5b50610440806100206000396000f3fe608060405234801561001057600080fd5b50600436106100365760003560e01c806327dc297e1461003b57806338bbfa5014610057575b600080fd5b61005560048036038101906100509190610282565b610073565b005b610071600480360381019061006c919061037f565b6100cf565b005b6100cb8282600067ffffffffffffffff81111561009357610092610157565b5b6040519080825280601f01601f1916602001820160405280156100c55781602001600182028036833780820191505090505b506100cf565b5050565b6000801b600360008060001b815260200190815260200160002081905550505050565b6000604051905090565b600080fd5b600080fd5b6000819050919050565b61011981610106565b811461012457600080fd5b50565b60008135905061013681610110565b92915050565b600080fd5b600080fd5b6000601f19601f8301169050919050565b7f4e487b7100000000000000000000000000000000000000000000000000000000600052604160045260246000fd5b61018f82610146565b810181811067ffffffffffffffff821117156101ae576101ad610157565b5b80604052505050565b60006101c16100f2565b90506101cd8282610186565b919050565b600067ffffffffffffffff8211156101ed576101ec610157565b5b6101f682610146565b9050602081019050919050565b82818337600083830152505050565b6000610225610220846101d2565b6101b7565b90508281526020810184848401111561024157610240610141565b5b61024c848285610203565b509392505050565b600082601f8301126102695761026861013c565b5b8135610279848260208601610212565b91505092915050565b60008060408385031215610299576102986100fc565b5b60006102a785828601610127565b925050602083013567ffffffffffffffff8111156102c8576102c7610101565b5b6102d485828601610254565b9150509250929050565b600067ffffffffffffffff8211156102f9576102f8610157565b5b61030282610146565b9050602081019050919050565b600061032261031d846102de565b6101b7565b90508281526020810184848401111561033e5761033d610141565b5b610349848285610203565b509392505050565b600082601f8301126103665761036561013c565b5b813561037684826020860161030f565b91505092915050565b600080600060608486031215610398576103976100fc565b5b60006103a686828701610127565b935050602084013567ffffffffffffffff8111156103c7576103c6610101565b5b6103d386828701610254565b925050604084013567ffffffffffffffff8111156103f4576103f3610101565b5b61040086828701610351565b915050925092509256fea264697066735822122056893a3046c6db4d21ff4abe650ed8420e38b72b96ae8574ae9a246a5584859664736f6c634300080e0033",
  "linkReferences": {},
  "deployedLinkReferences": {}
}