{
  "_format": "hh-sol-artifact-1",
  "contractName": "UsageOracle",
  "sourceName": "contracts/UsageOracle.sol",
  "abi": [
    {
      "anonymous": false,
      "inputs": [
        {
          "indexed": true,
          "internalType": "address",
          "name": "previousOwner",
          "type": "address"
        },
        {
          "indexed": true,
          "internalType": "address",
          "name": "newOwner",
          "type": "address"
        }
      ],
      "name": "OwnershipTransferred",
      "type": "event"
    },
    {
      "inputs": [],
      "name": "activeRate",
      "outputs": [
        {
          "internalType": "uint256",
          "name": "",
          "type": "uint256"
        }
      ],
      "stateMutability": "view",
      "type": "function"
    },
    {
      "inputs": [
        {
          "internalType": "address",
          "name": "userSubscription",
          "type": "address"
        }
      ],
      "name": "getUsageFromAddress",
      "outputs": [
        {
          "internalType": "uint256",
          "name": "",
          "type": "uint256"
        }
      ],
      "stateMutability": "view",
      "type": "function"
    },
    {
      "inputs": [],
      "name": "owner",
      "outputs": [
        {
          "internalType": "address",
          "name": "",
          "type": "address"
        }
      ],
      "stateMutability": "view",
      "type": "function"
    },
    {
      "inputs": [],
      "name": "renounceOwnership",
      "outputs": [],
      "stateMutability": "nonpayable",
      "type": "function"
    },
    {
      "inputs": [
        {
          "internalType": "address",
          "name": "userSubscription",
          "type": "address"
        },
        {
          "internalType": "uint256",
          "name": "usage",
          "type": "uint256"
        }
      ],
      "name": "setUsage",
      "outputs": [],
      "stateMutability": "nonpayable",
      "type": "function"
    },
    {
      "inputs": [
        {
          "internalType": "address",
          "name": "newOwner",
          "type": "address"
        }
      ],
      "name": "transferOwnership",
      "outputs": [],
      "stateMutability": "nonpayable",
      "type": "function"
    },
    {
      "inputs": [
        {
          "internalType": "uint256",
          "name": "newRate",
          "type": "uint256"
        }
      ],
      "name": "updateActiveRate",
      "outputs": [],
      "stateMutability": "nonpayable",
      "type": "function"
    }
  ],
  "bytecode": "0x608060405234801561001057600080fd5b5061002d61002261003260201b60201c565b61003a60201b60201c565b6100fe565b600033905090565b60008060009054906101000a900473ffffffffffffffffffffffffffffffffffffffff169050816000806101000a81548173ffffffffffffffffffffffffffffffffffffffff021916908373ffffffffffffffffffffffffffffffffffffffff1602179055508173ffffffffffffffffffffffffffffffffffffffff168173ffffffffffffffffffffffffffffffffffffffff167f8be0079c531659141344cd1fd0a4f28419497f9722a3daafe3b4186f6b6457e060405160405180910390a35050565b610af08061010d6000396000f3fe608060405234801561001057600080fd5b506004361061007d5760003560e01c806362f7a00f1161005b57806362f7a00f146100ec578063715018a6146101085780638da5cb5b14610112578063f2fde38b146101305761007d565b8063125274e1146100825780633a301be8146100b2578063604031b4146100d0575b600080fd5b61009c6004803603810190610097919061074d565b61014c565b6040516100a99190610793565b60405180910390f35b6100ba610195565b6040516100c79190610793565b60405180910390f35b6100ea60048036038101906100e591906107da565b61019f565b005b6101066004803603810190610101919061081a565b6103f0565b005b610110610476565b005b61011a6104fe565b6040516101279190610856565b60405180910390f35b61014a6004803603810190610145919061074d565b610527565b005b6000600160008373ffffffffffffffffffffffffffffffffffffffff1673ffffffffffffffffffffffffffffffffffffffff168152602001908152602001600020549050919050565b6000600254905090565b6101a761061e565b73ffffffffffffffffffffffffffffffffffffffff166101c56104fe565b73ffffffffffffffffffffffffffffffffffffffff161461021b576040517f08c379a0000000000000000000000000000000000000000000000000000000008152600401610212906108ce565b60405180910390fd5b428273ffffffffffffffffffffffffffffffffffffffff1663fa276e856040518163ffffffff1660e01b8152600401602060405180830381865afa158015610267573d6000803e3d6000fd5b505050506040513d601f19601f8201168201806040525081019061028b9190610903565b108015610309575060018273ffffffffffffffffffffffffffffffffffffffff16631aea10c26040518163ffffffff1660e01b8152600401602060405180830381865afa1580156102e0573d6000803e3d6000fd5b505050506040513d601f19601f820116820180604052508101906103049190610969565b60ff16145b610348576040517f08c379a000000000000000000000000000000000000000000000000000000000815260040161033f90610a08565b60405180910390fd5b80600160008473ffffffffffffffffffffffffffffffffffffffff1673ffffffffffffffffffffffffffffffffffffffff168152602001908152602001600020819055508173ffffffffffffffffffffffffffffffffffffffff16633b0443f46040518163ffffffff1660e01b8152600401600060405180830381600087803b1580156103d457600080fd5b505af11580156103e8573d6000803e3d6000fd5b505050505050565b6103f861061e565b73ffffffffffffffffffffffffffffffffffffffff166104166104fe565b73ffffffffffffffffffffffffffffffffffffffff161461046c576040517f08c379a0000000000000000000000000000000000000000000000000000000008152600401610463906108ce565b60405180910390fd5b8060028190555050565b61047e61061e565b73ffffffffffffffffffffffffffffffffffffffff1661049c6104fe565b73ffffffffffffffffffffffffffffffffffffffff16146104f2576040517f08c379a00000000000000000000000000000000000000000000000000000000081526004016104e9906108ce565b60405180910390fd5b6104fc6000610626565b565b60008060009054906101000a900473ffffffffffffffffffffffffffffffffffffffff16905090565b61052f61061e565b73ffffffffffffffffffffffffffffffffffffffff1661054d6104fe565b73ffffffffffffffffffffffffffffffffffffffff16146105a3576040517f08c379a000000000000000000000000000000000000000000000000000000000815260040161059a906108ce565b60405180910390fd5b600073ffffffffffffffffffffffffffffffffffffffff168173ffffffffffffffffffffffffffffffffffffffff1603610612576040517f08c379a000000000000000000000000000000000000000000000000000000000815260040161060990610a9a565b60405180910390fd5b61061b81610626565b50565b600033905090565b60008060009054906101000a900473ffffffffffffffffffffffffffffffffffffffff169050816000806101000a81548173ffffffffffffffffffffffffffffffffffffffff021916908373ffffffffffffffffffffffffffffffffffffffff1602179055508173ffffffffffffffffffffffffffffffffffffffff168173ffffffffffffffffffffffffffffffffffffffff167f8be0079c531659141344cd1fd0a4f28419497f9722a3daafe3b4186f6b6457e060405160405180910390a35050565b600080fd5b600073ffffffffffffffffffffffffffffffffffffffff82169050919050565b600061071a826106ef565b9050919050565b61072a8161070f565b811461073557600080fd5b50565b60008135905061074781610721565b92915050565b600060208284031215610763576107626106ea565b5b600061077184828501610738565b91505092915050565b6000819050919050565b61078d8161077a565b82525050565b60006020820190506107a86000830184610784565b92915050565b6107b78161077a565b81146107c257600080fd5b50565b6000813590506107d4816107ae565b92915050565b600080604083850312156107f1576107f06106ea565b5b60006107ff85828601610738565b9250506020610810858286016107c5565b9150509250929050565b6000602082840312156108305761082f6106ea565b5b600061083e848285016107c5565b91505092915050565b6108508161070f565b82525050565b600060208201905061086b6000830184610847565b92915050565b600082825260208201905092915050565b7f4f776e61626c653a2063616c6c6572206973206e6f7420746865206f776e6572600082015250565b60006108b8602083610871565b91506108c382610882565b602082019050919050565b600060208201905081810360008301526108e7816108ab565b9050919050565b6000815190506108fd816107ae565b92915050565b600060208284031215610919576109186106ea565b5b6000610927848285016108ee565b91505092915050565b600060ff82169050919050565b61094681610930565b811461095157600080fd5b50565b6000815190506109638161093d565b92915050565b60006020828403121561097f5761097e6106ea565b5b600061098d84828501610954565b91505092915050565b7f537562736372697074696f6e206d75737420686176652065787069726564206160008201527f6e64206d75737420686176652073746174757320616374697665210000000000602082015250565b60006109f2603b83610871565b91506109fd82610996565b604082019050919050565b60006020820190508181036000830152610a21816109e5565b9050919050565b7f4f776e61626c653a206e6577206f776e657220697320746865207a65726f206160008201527f6464726573730000000000000000000000000000000000000000000000000000602082015250565b6000610a84602683610871565b9150610a8f82610a28565b604082019050919050565b60006020820190508181036000830152610ab381610a77565b905091905056fea26469706673582212209cfc82a6115c55ccd2e9f79a5b8dc31bdd1e1c59586f7e2d806a34d0c80aaf0264736f6c634300080e0033",
  "linkReferences": {},
  "deployedLinkReferences": {}
}