{
  "_format": "hh-sol-artifact-1",
  "contractName": "HttpTester",
  "sourceName": "contracts/HttpTester.sol",
  "abi": [
    {
      "anonymous": false,
      "inputs": [
        {
          "indexed": false,
          "internalType": "string",
          "name": "description",
          "type": "string"
        }
      ],
      "name": "LogNewProvableQuery",
      "type": "event"
    },
    {
      "anonymous": false,
      "inputs": [
        {
          "indexed": false,
          "internalType": "string",
          "name": "price",
          "type": "string"
        }
      ],
      "name": "LogPriceUpdated",
      "type": "event"
    },
    {
      "anonymous": false,
      "inputs": [
        {
          "indexed": false,
          "internalType": "string",
          "name": "result",
          "type": "string"
        }
      ],
      "name": "LogResult",
      "type": "event"
    },
    {
      "inputs": [],
      "name": "ETHUSD",
      "outputs": [
        {
          "internalType": "string",
          "name": "",
          "type": "string"
        }
      ],
      "stateMutability": "view",
      "type": "function"
    },
    {
      "inputs": [
        {
          "internalType": "bytes32",
          "name": "myid",
          "type": "bytes32"
        },
        {
          "internalType": "string",
          "name": "result",
          "type": "string"
        }
      ],
      "name": "__callback",
      "outputs": [],
      "stateMutability": "nonpayable",
      "type": "function"
    },
    {
      "inputs": [
        {
          "internalType": "bytes32",
          "name": "_myid",
          "type": "bytes32"
        },
        {
          "internalType": "string",
          "name": "_result",
          "type": "string"
        },
        {
          "internalType": "bytes",
          "name": "_proof",
          "type": "bytes"
        }
      ],
      "name": "__callback",
      "outputs": [],
      "stateMutability": "nonpayable",
      "type": "function"
    },
    {
      "inputs": [],
      "name": "getUsageData",
      "outputs": [],
      "stateMutability": "payable",
      "type": "function"
    }
  ],
  "bytecode": "0x608060405234801561001057600080fd5b50611b61806100206000396000f3fe60806040526004361061003f5760003560e01c806327dc297e1461004457806338bbfa501461006d57806373db08441461009657806385028aa4146100c1575b600080fd5b34801561005057600080fd5b5061006b6004803603810190610066919061148a565b6100cb565b005b34801561007957600080fd5b50610094600480360381019061008f9190611587565b61015c565b005b3480156100a257600080fd5b506100ab61017f565b6040516100b8919061169a565b60405180910390f35b6100c961020d565b005b6100d361031c565b73ffffffffffffffffffffffffffffffffffffffff163373ffffffffffffffffffffffffffffffffffffffff161461010a57600080fd5b8060059080519060200190610120929190611257565b507f71f1a5645e51a2da828ffcf79cc17da88eb25e1bca8b9dced23210847a4769c181604051610150919061169a565b60405180910390a15050565b6000801b600360008060001b815260200190815260200160002081905550505050565b6005805461018c906116eb565b80601f01602080910402602001604051908101604052809291908181526020018280546101b8906116eb565b80156102055780601f106101da57610100808354040283529160200191610205565b820191906000526020600020905b8154815290600101906020018083116101e857829003601f168201915b505050505081565b4761024c6040518060400160405280600b81526020017f636f6d7075746174696f6e000000000000000000000000000000000000000000815250610603565b111561028c577fc4dc360d0a9c0677a3379ae0a3d81e887f761e65fdf3d7e00859d1bcd3c4738960405161027f906117b4565b60405180910390a161031a565b7fc4dc360d0a9c0677a3379ae0a3d81e887f761e65fdf3d7e00859d1bcd3c473896040516102b990611846565b60405180910390a16103186040518060400160405280600381526020017f55524c00000000000000000000000000000000000000000000000000000000008152506040518060600160405280602c8152602001611b00602c91396108f7565b505b565b60008073ffffffffffffffffffffffffffffffffffffffff16600160009054906101000a900473ffffffffffffffffffffffffffffffffffffffff1673ffffffffffffffffffffffffffffffffffffffff1614806103a4575060006103a2600160009054906101000a900473ffffffffffffffffffffffffffffffffffffffff16610cca565b145b156103b5576103b36000610cd5565b505b600160009054906101000a900473ffffffffffffffffffffffffffffffffffffffff1673ffffffffffffffffffffffffffffffffffffffff166338cc48316040518163ffffffff1660e01b81526004016020604051808303816000875af1158015610424573d6000803e3d6000fd5b505050506040513d601f19601f8201168201806040525081019061044891906118c4565b73ffffffffffffffffffffffffffffffffffffffff1660008054906101000a900473ffffffffffffffffffffffffffffffffffffffff1673ffffffffffffffffffffffffffffffffffffffff161461056d57600160009054906101000a900473ffffffffffffffffffffffffffffffffffffffff1673ffffffffffffffffffffffffffffffffffffffff166338cc48316040518163ffffffff1660e01b81526004016020604051808303816000875af1158015610509573d6000803e3d6000fd5b505050506040513d601f19601f8201168201806040525081019061052d91906118c4565b6000806101000a81548173ffffffffffffffffffffffffffffffffffffffff021916908373ffffffffffffffffffffffffffffffffffffffff1602179055505b60008054906101000a900473ffffffffffffffffffffffffffffffffffffffff1673ffffffffffffffffffffffffffffffffffffffff1663c281d19e6040518163ffffffff1660e01b81526004016020604051808303816000875af11580156105da573d6000803e3d6000fd5b505050506040513d601f19601f820116820180604052508101906105fe91906118c4565b905090565b60008073ffffffffffffffffffffffffffffffffffffffff16600160009054906101000a900473ffffffffffffffffffffffffffffffffffffffff1673ffffffffffffffffffffffffffffffffffffffff16148061068b57506000610689600160009054906101000a900473ffffffffffffffffffffffffffffffffffffffff16610cca565b145b1561069c5761069a6000610cd5565b505b600160009054906101000a900473ffffffffffffffffffffffffffffffffffffffff1673ffffffffffffffffffffffffffffffffffffffff166338cc48316040518163ffffffff1660e01b81526004016020604051808303816000875af115801561070b573d6000803e3d6000fd5b505050506040513d601f19601f8201168201806040525081019061072f91906118c4565b73ffffffffffffffffffffffffffffffffffffffff1660008054906101000a900473ffffffffffffffffffffffffffffffffffffffff1673ffffffffffffffffffffffffffffffffffffffff161461085457600160009054906101000a900473ffffffffffffffffffffffffffffffffffffffff1673ffffffffffffffffffffffffffffffffffffffff166338cc48316040518163ffffffff1660e01b81526004016020604051808303816000875af11580156107f0573d6000803e3d6000fd5b505050506040513d601f19601f8201168201806040525081019061081491906118c4565b6000806101000a81548173ffffffffffffffffffffffffffffffffffffffff021916908373ffffffffffffffffffffffffffffffffffffffff1602179055505b60008054906101000a900473ffffffffffffffffffffffffffffffffffffffff1673ffffffffffffffffffffffffffffffffffffffff1663524f3889836040518263ffffffff1660e01b81526004016108ad919061169a565b6020604051808303816000875af11580156108cc573d6000803e3d6000fd5b505050506040513d601f19601f820116820180604052508101906108f09190611927565b9050919050565b60008073ffffffffffffffffffffffffffffffffffffffff16600160009054906101000a900473ffffffffffffffffffffffffffffffffffffffff1673ffffffffffffffffffffffffffffffffffffffff16148061097f5750600061097d600160009054906101000a900473ffffffffffffffffffffffffffffffffffffffff16610cca565b145b156109905761098e6000610cd5565b505b600160009054906101000a900473ffffffffffffffffffffffffffffffffffffffff1673ffffffffffffffffffffffffffffffffffffffff166338cc48316040518163ffffffff1660e01b81526004016020604051808303816000875af11580156109ff573d6000803e3d6000fd5b505050506040513d601f19601f82011682018060405250810190610a2391906118c4565b73ffffffffffffffffffffffffffffffffffffffff1660008054906101000a900473ffffffffffffffffffffffffffffffffffffffff1673ffffffffffffffffffffffffffffffffffffffff1614610b4857600160009054906101000a900473ffffffffffffffffffffffffffffffffffffffff1673ffffffffffffffffffffffffffffffffffffffff166338cc48316040518163ffffffff1660e01b81526004016020604051808303816000875af1158015610ae4573d6000803e3d6000fd5b505050506040513d601f19601f82011682018060405250810190610b0891906118c4565b6000806101000a81548173ffffffffffffffffffffffffffffffffffffffff021916908373ffffffffffffffffffffffffffffffffffffffff1602179055505b60008060009054906101000a900473ffffffffffffffffffffffffffffffffffffffff1673ffffffffffffffffffffffffffffffffffffffff1663524f3889856040518263ffffffff1660e01b8152600401610ba4919061169a565b6020604051808303816000875af1158015610bc3573d6000803e3d6000fd5b505050506040513d601f19601f82011682018060405250810190610be79190611927565b905062030d403a610bf89190611983565b670de0b6b3a7640000610c0b91906119dd565b811115610c1e576000801b915050610cc4565b60008054906101000a900473ffffffffffffffffffffffffffffffffffffffff1673ffffffffffffffffffffffffffffffffffffffff1663adf59f9982600087876040518563ffffffff1660e01b8152600401610c7d93929190611a78565b60206040518083038185885af1158015610c9b573d6000803e3d6000fd5b50505050506040513d601f19601f82011682018060405250810190610cc09190611ad2565b9150505b92915050565b6000813b9050919050565b6000610cdf610ce6565b9050919050565b600080610d06731d3b2638a7cc9f2cb3d298a3da7a90b67e5506ed610cca565b1115610da857731d3b2638a7cc9f2cb3d298a3da7a90b67e5506ed600160006101000a81548173ffffffffffffffffffffffffffffffffffffffff021916908373ffffffffffffffffffffffffffffffffffffffff160217905550610d9f6040518060400160405280600b81526020017f6574685f6d61696e6e657400000000000000000000000000000000000000000081525061123d565b6001905061123a565b6000610dc773c03a2615d5efaf5f49f60b7bb6583eaec212fdf1610cca565b1115610e695773c03a2615d5efaf5f49f60b7bb6583eaec212fdf1600160006101000a81548173ffffffffffffffffffffffffffffffffffffffff021916908373ffffffffffffffffffffffffffffffffffffffff160217905550610e606040518060400160405280600c81526020017f6574685f726f707374656e33000000000000000000000000000000000000000081525061123d565b6001905061123a565b6000610e8873b7a07bcf2ba2f2703b24c0691b5278999c59ac7e610cca565b1115610f2a5773b7a07bcf2ba2f2703b24c0691b5278999c59ac7e600160006101000a81548173ffffffffffffffffffffffffffffffffffffffff021916908373ffffffffffffffffffffffffffffffffffffffff160217905550610f216040518060400160405280600981526020017f6574685f6b6f76616e000000000000000000000000000000000000000000000081525061123d565b6001905061123a565b6000610f4973146500cfd35b22e4a392fe0adc06de1a1368ed48610cca565b1115610feb5773146500cfd35b22e4a392fe0adc06de1a1368ed48600160006101000a81548173ffffffffffffffffffffffffffffffffffffffff021916908373ffffffffffffffffffffffffffffffffffffffff160217905550610fe26040518060400160405280600b81526020017f6574685f72696e6b65627900000000000000000000000000000000000000000081525061123d565b6001905061123a565b600061100a73a2998efd205fb9d4b4963afb70778d6354ad3a41610cca565b11156110ac5773a2998efd205fb9d4b4963afb70778d6354ad3a41600160006101000a81548173ffffffffffffffffffffffffffffffffffffffff021916908373ffffffffffffffffffffffffffffffffffffffff1602179055506110a36040518060400160405280600a81526020017f6574685f676f65726c690000000000000000000000000000000000000000000081525061123d565b6001905061123a565b60006110cb736f485c8bf6fc43ea212e93bbf8ce046c7f1cb475610cca565b111561112f57736f485c8bf6fc43ea212e93bbf8ce046c7f1cb475600160006101000a81548173ffffffffffffffffffffffffffffffffffffffff021916908373ffffffffffffffffffffffffffffffffffffffff1602179055506001905061123a565b600061114e7320e12a1f859b3feae5fb2a0a32c18f5a65555bbf610cca565b11156111b2577320e12a1f859b3feae5fb2a0a32c18f5a65555bbf600160006101000a81548173ffffffffffffffffffffffffffffffffffffffff021916908373ffffffffffffffffffffffffffffffffffffffff1602179055506001905061123a565b60006111d17351efaf4c8b3c9afbd5ab9f4bbc82784ab6ef8faa610cca565b1115611235577351efaf4c8b3c9afbd5ab9f4bbc82784ab6ef8faa600160006101000a81548173ffffffffffffffffffffffffffffffffffffffff021916908373ffffffffffffffffffffffffffffffffffffffff1602179055506001905061123a565b600090505b90565b8060029080519060200190611253929190611257565b5050565b828054611263906116eb565b90600052602060002090601f01602090048101928261128557600085556112cc565b82601f1061129e57805160ff19168380011785556112cc565b828001600101855582156112cc579182015b828111156112cb5782518255916020019190600101906112b0565b5b5090506112d991906112dd565b5090565b5b808211156112f65760008160009055506001016112de565b5090565b6000604051905090565b600080fd5b600080fd5b6000819050919050565b6113218161130e565b811461132c57600080fd5b50565b60008135905061133e81611318565b92915050565b600080fd5b600080fd5b6000601f19601f8301169050919050565b7f4e487b7100000000000000000000000000000000000000000000000000000000600052604160045260246000fd5b6113978261134e565b810181811067ffffffffffffffff821117156113b6576113b561135f565b5b80604052505050565b60006113c96112fa565b90506113d5828261138e565b919050565b600067ffffffffffffffff8211156113f5576113f461135f565b5b6113fe8261134e565b9050602081019050919050565b82818337600083830152505050565b600061142d611428846113da565b6113bf565b90508281526020810184848401111561144957611448611349565b5b61145484828561140b565b509392505050565b600082601f83011261147157611470611344565b5b813561148184826020860161141a565b91505092915050565b600080604083850312156114a1576114a0611304565b5b60006114af8582860161132f565b925050602083013567ffffffffffffffff8111156114d0576114cf611309565b5b6114dc8582860161145c565b9150509250929050565b600067ffffffffffffffff8211156115015761150061135f565b5b61150a8261134e565b9050602081019050919050565b600061152a611525846114e6565b6113bf565b90508281526020810184848401111561154657611545611349565b5b61155184828561140b565b509392505050565b600082601f83011261156e5761156d611344565b5b813561157e848260208601611517565b91505092915050565b6000806000606084860312156115a05761159f611304565b5b60006115ae8682870161132f565b935050602084013567ffffffffffffffff8111156115cf576115ce611309565b5b6115db8682870161145c565b925050604084013567ffffffffffffffff8111156115fc576115fb611309565b5b61160886828701611559565b9150509250925092565b600081519050919050565b600082825260208201905092915050565b60005b8381101561164c578082015181840152602081019050611631565b8381111561165b576000848401525b50505050565b600061166c82611612565b611676818561161d565b935061168681856020860161162e565b61168f8161134e565b840191505092915050565b600060208201905081810360008301526116b48184611661565b905092915050565b7f4e487b7100000000000000000000000000000000000000000000000000000000600052602260045260246000fd5b6000600282049050600182168061170357607f821691505b602082108103611716576117156116bc565b5b50919050565b7f50726f7661626c6520717565727920776173204e4f542073656e742c20706c6560008201527f6173652061646420736f6d652045544820746f20636f76657220666f7220746860208201527f6520717565727920666565000000000000000000000000000000000000000000604082015250565b600061179e604b8361161d565b91506117a98261171c565b606082019050919050565b600060208201905081810360008301526117cd81611791565b9050919050565b7f50726f7661626c65207175657279207761732073656e742c207374616e64696e60008201527f6720627920666f722074686520616e737765722e2e2e00000000000000000000602082015250565b600061183060368361161d565b915061183b826117d4565b604082019050919050565b6000602082019050818103600083015261185f81611823565b9050919050565b600073ffffffffffffffffffffffffffffffffffffffff82169050919050565b600061189182611866565b9050919050565b6118a181611886565b81146118ac57600080fd5b50565b6000815190506118be81611898565b92915050565b6000602082840312156118da576118d9611304565b5b60006118e8848285016118af565b91505092915050565b6000819050919050565b611904816118f1565b811461190f57600080fd5b50565b600081519050611921816118fb565b92915050565b60006020828403121561193d5761193c611304565b5b600061194b84828501611912565b91505092915050565b7f4e487b7100000000000000000000000000000000000000000000000000000000600052601160045260246000fd5b600061198e826118f1565b9150611999836118f1565b9250817fffffffffffffffffffffffffffffffffffffffffffffffffffffffffffffffff04831182151516156119d2576119d1611954565b5b828202905092915050565b60006119e8826118f1565b91506119f3836118f1565b9250827fffffffffffffffffffffffffffffffffffffffffffffffffffffffffffffffff03821115611a2857611a27611954565b5b828201905092915050565b6000819050919050565b6000819050919050565b6000611a62611a5d611a5884611a33565b611a3d565b6118f1565b9050919050565b611a7281611a47565b82525050565b6000606082019050611a8d6000830186611a69565b8181036020830152611a9f8185611661565b90508181036040830152611ab38184611661565b9050949350505050565b600081519050611acc81611318565b92915050565b600060208284031215611ae857611ae7611304565b5b6000611af684828501611abd565b9150509291505056fe68747470733a2f2f6a736f6e706c616365686f6c6465722e74797069636f64652e636f6d2f706f7374732f31a26469706673582212203108a1dc2cd1f357ce6f80147d2951b8ae0b87395b961e7d27d67ab921a11fd864736f6c634300080e0033",
  "linkReferences": {},
  "deployedLinkReferences": {}
}