{
  "_format": "hh-sol-artifact-1",
  "contractName": "SubscriptionStore",
  "sourceName": "contracts/SubscriptionStore.sol",
  "abi": [
    {
      "inputs": [
        {
          "internalType": "address payable",
          "name": "_ops",
          "type": "address"
        },
        {
          "internalType": "address",
          "name": "tokenAddress",
          "type": "address"
        }
      ],
      "stateMutability": "nonpayable",
      "type": "constructor"
    },
    {
      "anonymous": false,
      "inputs": [
        {
          "indexed": true,
          "internalType": "address",
          "name": "previousOwner",
          "type": "address"
        },
        {
          "indexed": true,
          "internalType": "address",
          "name": "newOwner",
          "type": "address"
        }
      ],
      "name": "OwnershipTransferred",
      "type": "event"
    },
    {
      "inputs": [],
      "name": "ETH",
      "outputs": [
        {
          "internalType": "address",
          "name": "",
          "type": "address"
        }
      ],
      "stateMutability": "view",
      "type": "function"
    },
    {
      "inputs": [],
      "name": "ETH_ADDRESS",
      "outputs": [
        {
          "internalType": "address",
          "name": "",
          "type": "address"
        }
      ],
      "stateMutability": "view",
      "type": "function"
    },
    {
      "inputs": [
        {
          "internalType": "bytes32",
          "name": "taskId",
          "type": "bytes32"
        }
      ],
      "name": "_cancelTaskForUser",
      "outputs": [],
      "stateMutability": "nonpayable",
      "type": "function"
    },
    {
      "inputs": [
        {
          "internalType": "address",
          "name": "userSubscriptionAddress",
          "type": "address"
        }
      ],
      "name": "createTaskForUser",
      "outputs": [
        {
          "internalType": "bytes32",
          "name": "",
          "type": "bytes32"
        }
      ],
      "stateMutability": "nonpayable",
      "type": "function"
    },
    {
      "inputs": [],
      "name": "gelato",
      "outputs": [
        {
          "internalType": "address payable",
          "name": "",
          "type": "address"
        }
      ],
      "stateMutability": "view",
      "type": "function"
    },
    {
      "inputs": [],
      "name": "ops",
      "outputs": [
        {
          "internalType": "address",
          "name": "",
          "type": "address"
        }
      ],
      "stateMutability": "view",
      "type": "function"
    },
    {
      "inputs": [],
      "name": "owner",
      "outputs": [
        {
          "internalType": "address",
          "name": "",
          "type": "address"
        }
      ],
      "stateMutability": "view",
      "type": "function"
    },
    {
      "inputs": [],
      "name": "registerUser",
      "outputs": [
        {
          "internalType": "address",
          "name": "",
          "type": "address"
        }
      ],
      "stateMutability": "nonpayable",
      "type": "function"
    },
    {
      "inputs": [],
      "name": "renounceOwnership",
      "outputs": [],
      "stateMutability": "nonpayable",
      "type": "function"
    },
    {
      "inputs": [
        {
          "internalType": "address",
          "name": "oracleAddress",
          "type": "address"
        }
      ],
      "name": "setUsageOracle",
      "outputs": [],
      "stateMutability": "nonpayable",
      "type": "function"
    },
    {
      "inputs": [
        {
          "internalType": "address",
          "name": "userAddress",
          "type": "address"
        }
      ],
      "name": "subscriptionFromUser",
      "outputs": [
        {
          "internalType": "address",
          "name": "",
          "type": "address"
        }
      ],
      "stateMutability": "view",
      "type": "function"
    },
    {
      "inputs": [],
      "name": "taskTreasury",
      "outputs": [
        {
          "internalType": "address",
          "name": "",
          "type": "address"
        }
      ],
      "stateMutability": "view",
      "type": "function"
    },
    {
      "inputs": [],
      "name": "token",
      "outputs": [
        {
          "internalType": "address",
          "name": "",
          "type": "address"
        }
      ],
      "stateMutability": "view",
      "type": "function"
    },
    {
      "inputs": [
        {
          "internalType": "address",
          "name": "newOwner",
          "type": "address"
        }
      ],
      "name": "transferOwnership",
      "outputs": [],
      "stateMutability": "nonpayable",
      "type": "function"
    },
    {
      "inputs": [],
      "name": "usageOracle",
      "outputs": [
        {
          "internalType": "address",
          "name": "",
          "type": "address"
        }
      ],
      "stateMutability": "view",
      "type": "function"
    }
  ],
  "bytecode": "0x61010060405273eeeeeeeeeeeeeeeeeeeeeeeeeeeeeeeeeeeeeeee73ffffffffffffffffffffffffffffffffffffffff1660c09073ffffffffffffffffffffffffffffffffffffffff16815250730af13072280e10907911ce5d046c2dfa1b604d2373ffffffffffffffffffffffffffffffffffffffff1660e09073ffffffffffffffffffffffffffffffffffffffff16815250348015620000a057600080fd5b5060405162003305380380620033058339818101604052810190620000c6919062000385565b81620000e7620000db6200020a60201b60201c565b6200021260201b60201c565b8073ffffffffffffffffffffffffffffffffffffffff1660808173ffffffffffffffffffffffffffffffffffffffff16815250508073ffffffffffffffffffffffffffffffffffffffff1663573ea5756040518163ffffffff1660e01b8152600401602060405180830381865afa15801562000167573d6000803e3d6000fd5b505050506040513d601f19601f820116820180604052508101906200018d9190620003cc565b73ffffffffffffffffffffffffffffffffffffffff1660a08173ffffffffffffffffffffffffffffffffffffffff16815250505080600260006101000a81548173ffffffffffffffffffffffffffffffffffffffff021916908373ffffffffffffffffffffffffffffffffffffffff1602179055505050620003fe565b600033905090565b60008060009054906101000a900473ffffffffffffffffffffffffffffffffffffffff169050816000806101000a81548173ffffffffffffffffffffffffffffffffffffffff021916908373ffffffffffffffffffffffffffffffffffffffff1602179055508173ffffffffffffffffffffffffffffffffffffffff168173ffffffffffffffffffffffffffffffffffffffff167f8be0079c531659141344cd1fd0a4f28419497f9722a3daafe3b4186f6b6457e060405160405180910390a35050565b600080fd5b600073ffffffffffffffffffffffffffffffffffffffff82169050919050565b60006200030882620002db565b9050919050565b6200031a81620002fb565b81146200032657600080fd5b50565b6000815190506200033a816200030f565b92915050565b60006200034d82620002db565b9050919050565b6200035f8162000340565b81146200036b57600080fd5b50565b6000815190506200037f8162000354565b92915050565b600080604083850312156200039f576200039e620002d6565b5b6000620003af8582860162000329565b9250506020620003c2858286016200036e565b9150509250929050565b600060208284031215620003e557620003e4620002d6565b5b6000620003f58482850162000329565b91505092915050565b60805160a05160c05160e051612ebf620004466000396000610b160152600061096a0152600061073901526000818161061601528181610b3c0152610d100152612ebf6000f3fe60806040523480156200001157600080fd5b50600436106200010c5760003560e01c8063a734f06e11620000a5578063e70abe92116200006f578063e70abe921462000297578063f2fde38b14620002b9578063fc0c546a14620002d9578063ffd510db14620002fb576200010c565b8063a734f06e1462000211578063c07413fa1462000233578063db5e73f01462000255578063e60a32131462000275576200010c565b8063715018a611620000e7578063715018a6146200018b578063777a686614620001975780638322fff214620001cd5780638da5cb5b14620001ef576200010c565b80634d3820eb14620001115780634fdb7a4f1462000133578063573ea5751462000169575b600080fd5b6200011b6200031b565b6040516200012a919062000ebf565b60405180910390f35b6200015160048036038101906200014b919062000f12565b6200058d565b60405162000160919062000f5f565b60405180910390f35b6200017362000737565b60405162000182919062000fa1565b60405180910390f35b620001956200075b565b005b620001b56004803603810190620001af919062000f12565b620007ec565b604051620001c4919062000ebf565b60405180910390f35b620001d762000925565b604051620001e6919062000ebf565b60405180910390f35b620001f96200093d565b60405162000208919062000ebf565b60405180910390f35b6200021b62000966565b6040516200022a919062000ebf565b60405180910390f35b6200023d6200098e565b6040516200024c919062000ebf565b60405180910390f35b6200027360048036038101906200026d919062000f12565b62000a4b565b005b6200027f62000b12565b6040516200028e919062000ebf565b60405180910390f35b620002a162000b3a565b604051620002b0919062000ebf565b60405180910390f35b620002d76004803603810190620002d1919062000f12565b62000b5e565b005b620002e362000c61565b604051620002f2919062000ebf565b60405180910390f35b62000319600480360381019062000313919062000fef565b62000c8b565b005b60008073ffffffffffffffffffffffffffffffffffffffff16600160009054906101000a900473ffffffffffffffffffffffffffffffffffffffff1673ffffffffffffffffffffffffffffffffffffffff1603620003b0576040517f08c379a0000000000000000000000000000000000000000000000000000000008152600401620003a79062001082565b60405180910390fd5b600073ffffffffffffffffffffffffffffffffffffffff16600360003373ffffffffffffffffffffffffffffffffffffffff1673ffffffffffffffffffffffffffffffffffffffff16815260200190815260200160002060009054906101000a900473ffffffffffffffffffffffffffffffffffffffff1673ffffffffffffffffffffffffffffffffffffffff161462000481576040517f08c379a000000000000000000000000000000000000000000000000000000000815260040162000478906200111a565b60405180910390fd5b60003330600260009054906101000a900473ffffffffffffffffffffffffffffffffffffffff16600160009054906101000a900473ffffffffffffffffffffffffffffffffffffffff16604051620004d99062000e6c565b620004e89493929190620011a7565b604051809103906000f08015801562000505573d6000803e3d6000fd5b50905080600360003373ffffffffffffffffffffffffffffffffffffffff1673ffffffffffffffffffffffffffffffffffffffff16815260200190815260200160002060006101000a81548173ffffffffffffffffffffffffffffffffffffffff021916908373ffffffffffffffffffffffffffffffffffffffff1602179055508091505090565b60006200059962000da0565b73ffffffffffffffffffffffffffffffffffffffff16620005b96200093d565b73ffffffffffffffffffffffffffffffffffffffff161462000612576040517f08c379a0000000000000000000000000000000000000000000000000000000008152600401620006099062001244565b60405180910390fd5b60007f000000000000000000000000000000000000000000000000000000000000000073ffffffffffffffffffffffffffffffffffffffff16638b92696a8463e4fc6b6d60e01b8663cf5303cf60e01b604051602401604051602081830303815290604052907bffffffffffffffffffffffffffffffffffffffffffffffffffffffff19166020820180517bffffffffffffffffffffffffffffffffffffffffffffffffffffffff83818316178352505050506040518563ffffffff1660e01b8152600401620006e6949392919062001347565b6020604051808303816000875af115801562000706573d6000803e3d6000fd5b505050506040513d601f19601f820116820180604052508101906200072c9190620013b2565b905080915050919050565b7f000000000000000000000000000000000000000000000000000000000000000081565b6200076562000da0565b73ffffffffffffffffffffffffffffffffffffffff16620007856200093d565b73ffffffffffffffffffffffffffffffffffffffff1614620007de576040517f08c379a0000000000000000000000000000000000000000000000000000000008152600401620007d59062001244565b60405180910390fd5b620007ea600062000da8565b565b60008073ffffffffffffffffffffffffffffffffffffffff16600360008473ffffffffffffffffffffffffffffffffffffffff1673ffffffffffffffffffffffffffffffffffffffff16815260200190815260200160002060009054906101000a900473ffffffffffffffffffffffffffffffffffffffff1673ffffffffffffffffffffffffffffffffffffffff1603620008be576040517f08c379a0000000000000000000000000000000000000000000000000000000008152600401620008b5906200145a565b60405180910390fd5b600360008373ffffffffffffffffffffffffffffffffffffffff1673ffffffffffffffffffffffffffffffffffffffff16815260200190815260200160002060009054906101000a900473ffffffffffffffffffffffffffffffffffffffff169050919050565b73eeeeeeeeeeeeeeeeeeeeeeeeeeeeeeeeeeeeeeee81565b60008060009054906101000a900473ffffffffffffffffffffffffffffffffffffffff16905090565b60007f0000000000000000000000000000000000000000000000000000000000000000905090565b60008073ffffffffffffffffffffffffffffffffffffffff16600160009054906101000a900473ffffffffffffffffffffffffffffffffffffffff1673ffffffffffffffffffffffffffffffffffffffff160362000a23576040517f08c379a000000000000000000000000000000000000000000000000000000000815260040162000a1a9062001082565b60405180910390fd5b600160009054906101000a900473ffffffffffffffffffffffffffffffffffffffff16905090565b62000a5562000da0565b73ffffffffffffffffffffffffffffffffffffffff1662000a756200093d565b73ffffffffffffffffffffffffffffffffffffffff161462000ace576040517f08c379a000000000000000000000000000000000000000000000000000000000815260040162000ac59062001244565b60405180910390fd5b80600160006101000a81548173ffffffffffffffffffffffffffffffffffffffff021916908373ffffffffffffffffffffffffffffffffffffffff16021790555050565b60007f0000000000000000000000000000000000000000000000000000000000000000905090565b7f000000000000000000000000000000000000000000000000000000000000000081565b62000b6862000da0565b73ffffffffffffffffffffffffffffffffffffffff1662000b886200093d565b73ffffffffffffffffffffffffffffffffffffffff161462000be1576040517f08c379a000000000000000000000000000000000000000000000000000000000815260040162000bd89062001244565b60405180910390fd5b600073ffffffffffffffffffffffffffffffffffffffff168173ffffffffffffffffffffffffffffffffffffffff160362000c53576040517f08c379a000000000000000000000000000000000000000000000000000000000815260040162000c4a90620014f2565b60405180910390fd5b62000c5e8162000da8565b50565b6000600260009054906101000a900473ffffffffffffffffffffffffffffffffffffffff16905090565b62000c9562000da0565b73ffffffffffffffffffffffffffffffffffffffff1662000cb56200093d565b73ffffffffffffffffffffffffffffffffffffffff161462000d0e576040517f08c379a000000000000000000000000000000000000000000000000000000000815260040162000d059062001244565b60405180910390fd5b7f000000000000000000000000000000000000000000000000000000000000000073ffffffffffffffffffffffffffffffffffffffff1663ee8ca3b5826040518263ffffffff1660e01b815260040162000d69919062000f5f565b600060405180830381600087803b15801562000d8457600080fd5b505af115801562000d99573d6000803e3d6000fd5b5050505050565b600033905090565b60008060009054906101000a900473ffffffffffffffffffffffffffffffffffffffff169050816000806101000a81548173ffffffffffffffffffffffffffffffffffffffff021916908373ffffffffffffffffffffffffffffffffffffffff1602179055508173ffffffffffffffffffffffffffffffffffffffff168173ffffffffffffffffffffffffffffffffffffffff167f8be0079c531659141344cd1fd0a4f28419497f9722a3daafe3b4186f6b6457e060405160405180910390a35050565b611975806200151583390190565b600073ffffffffffffffffffffffffffffffffffffffff82169050919050565b600062000ea78262000e7a565b9050919050565b62000eb98162000e9a565b82525050565b600060208201905062000ed6600083018462000eae565b92915050565b600080fd5b62000eec8162000e9a565b811462000ef857600080fd5b50565b60008135905062000f0c8162000ee1565b92915050565b60006020828403121562000f2b5762000f2a62000edc565b5b600062000f3b8482850162000efb565b91505092915050565b6000819050919050565b62000f598162000f44565b82525050565b600060208201905062000f76600083018462000f4e565b92915050565b600062000f898262000e7a565b9050919050565b62000f9b8162000f7c565b82525050565b600060208201905062000fb8600083018462000f90565b92915050565b62000fc98162000f44565b811462000fd557600080fd5b50565b60008135905062000fe98162000fbe565b92915050565b60006020828403121562001008576200100762000edc565b5b6000620010188482850162000fd8565b91505092915050565b600082825260208201905092915050565b7f4f7261636c65206164647265737320686173206e6f74206265656e2073657421600082015250565b60006200106a60208362001021565b9150620010778262001032565b602082019050919050565b600060208201905081810360008301526200109d816200105b565b9050919050565b7f43616c6c657220616c72656164792068617320616e206163746976652073756260008201527f736372697074696f6e20636f6e74726163742100000000000000000000000000602082015250565b60006200110260338362001021565b91506200110f82620010a4565b604082019050919050565b600060208201905081810360008301526200113581620010f3565b9050919050565b6000819050919050565b600062001167620011616200115b8462000e7a565b6200113c565b62000e7a565b9050919050565b60006200117b8262001146565b9050919050565b60006200118f826200116e565b9050919050565b620011a18162001182565b82525050565b6000608082019050620011be600083018762000eae565b620011cd602083018662000eae565b620011dc604083018562001196565b620011eb606083018462000eae565b95945050505050565b7f4f776e61626c653a2063616c6c6572206973206e6f7420746865206f776e6572600082015250565b60006200122c60208362001021565b91506200123982620011f4565b602082019050919050565b600060208201905081810360008301526200125f816200121d565b9050919050565b60007fffffffff0000000000000000000000000000000000000000000000000000000082169050919050565b6200129d8162001266565b82525050565b600081519050919050565b600082825260208201905092915050565b60005b83811015620012df578082015181840152602081019050620012c2565b83811115620012ef576000848401525b50505050565b6000601f19601f8301169050919050565b60006200131382620012a3565b6200131f8185620012ae565b935062001331818560208601620012bf565b6200133c81620012f5565b840191505092915050565b60006080820190506200135e600083018762000eae565b6200136d602083018662001292565b6200137c604083018562000eae565b818103606083015262001390818462001306565b905095945050505050565b600081519050620013ac8162000fbe565b92915050565b600060208284031215620013cb57620013ca62000edc565b5b6000620013db848285016200139b565b91505092915050565b7f557365722077697468206164647265737320686173206e6f207375627363726960008201527f7074696f6e20636f6e7472616374210000000000000000000000000000000000602082015250565b600062001442602f8362001021565b91506200144f82620013e4565b604082019050919050565b60006020820190508181036000830152620014758162001433565b9050919050565b7f4f776e61626c653a206e6577206f776e657220697320746865207a65726f206160008201527f6464726573730000000000000000000000000000000000000000000000000000602082015250565b6000620014da60268362001021565b9150620014e7826200147c565b604082019050919050565b600060208201905081810360008301526200150d81620014cb565b905091905056fe60a060405273c1c6805b857bef1f412519c4a842522431afed3973ffffffffffffffffffffffffffffffffffffffff1660809073ffffffffffffffffffffffffffffffffffffffff168152503480156200005857600080fd5b50604051620019753803806200197583398181016040528101906200007e919062000256565b83600560006101000a81548173ffffffffffffffffffffffffffffffffffffffff021916908373ffffffffffffffffffffffffffffffffffffffff16021790555082600660006101000a81548173ffffffffffffffffffffffffffffffffffffffff021916908373ffffffffffffffffffffffffffffffffffffffff16021790555081600760006101000a81548173ffffffffffffffffffffffffffffffffffffffff021916908373ffffffffffffffffffffffffffffffffffffffff16021790555080600860006101000a81548173ffffffffffffffffffffffffffffffffffffffff021916908373ffffffffffffffffffffffffffffffffffffffff1602179055506000600860146101000a81548160ff02191690831515021790555050505050620002c8565b600080fd5b600073ffffffffffffffffffffffffffffffffffffffff82169050919050565b6000620001d982620001ac565b9050919050565b620001eb81620001cc565b8114620001f757600080fd5b50565b6000815190506200020b81620001e0565b92915050565b60006200021e82620001cc565b9050919050565b620002308162000211565b81146200023c57600080fd5b50565b600081519050620002508162000225565b92915050565b60008060008060808587031215620002735762000272620001a7565b5b60006200028387828801620001fa565b94505060206200029687828801620001fa565b9350506040620002a9878288016200023f565b9250506060620002bc87828801620001fa565b91505092959194509250565b608051611691620002e4600039600061073401526116916000f3fe608060405234801561001057600080fd5b506004361061007d5760003560e01c80638ba9c5531161005b5780638ba9c553146100c6578063cf5303cf146100e4578063e4fc6b6d14610103578063fa276e851461010d5761007d565b80631aea10c2146100825780632d2713c0146100a05780633b0443f4146100bc575b600080fd5b61008a61012b565b6040516100979190610cdc565b60405180910390f35b6100ba60048036038101906100b59190610d32565b610156565b005b6100c4610581565b005b6100ce61062e565b6040516100db9190610e79565b60405180910390f35b6100ec6106ab565b6040516100fa929190610f48565b60405180910390f35b61010b610732565b005b610115610c70565b6040516101229190610f87565b60405180910390f35b60008060040160009054906101000a900460ff16600181111561015157610150610d9a565b5b905090565b600560009054906101000a900473ffffffffffffffffffffffffffffffffffffffff1673ffffffffffffffffffffffffffffffffffffffff163373ffffffffffffffffffffffffffffffffffffffff16146101e6576040517f08c379a00000000000000000000000000000000000000000000000000000000081526004016101dd90610fff565b60405180910390fd5b600760009054906101000a900473ffffffffffffffffffffffffffffffffffffffff1673ffffffffffffffffffffffffffffffffffffffff1663d95b637130336040518363ffffffff1660e01b8152600401610243929190611060565b602060405180830381865afa158015610260573d6000803e3d6000fd5b505050506040513d601f19601f8201168201806040525081019061028491906110b5565b6102c3576040517f08c379a00000000000000000000000000000000000000000000000000000000081526004016102ba90611154565b60405180910390fd5b808210610305576040517f08c379a00000000000000000000000000000000000000000000000000000000081526004016102fc906111e6565b60405180910390fd5b6000600181111561031957610318610d9a565b5b600060040160009054906101000a900460ff16600181111561033e5761033d610d9a565b5b1461037e576040517f08c379a000000000000000000000000000000000000000000000000000000000815260040161037590611252565b60405180910390fd5b6000338383604051602001610395939291906112db565b6040516020818303038152906040528051906020012090506000600860009054906101000a900473ffffffffffffffffffffffffffffffffffffffff1673ffffffffffffffffffffffffffffffffffffffff16633a301be86040518163ffffffff1660e01b8152600401602060405180830381865afa15801561041c573d6000803e3d6000fd5b505050506040513d601f19601f82011682018060405250810190610440919061132d565b905060006105a0826104529190611389565b9050600760009054906101000a900473ffffffffffffffffffffffffffffffffffffffff1673ffffffffffffffffffffffffffffffffffffffff166362ad1b833330846040518463ffffffff1660e01b81526004016104b393929190611409565b600060405180830381600087803b1580156104cd57600080fd5b505af11580156104e1573d6000803e3d6000fd5b505050506040518060a0016040528084815260200183815260200186815260200185815260200160018081111561051b5761051a610d9a565b5b815250600080820151816000015560208201518160010155604082015181600201556060820151816003015560808201518160040160006101000a81548160ff0219169083600181111561057257610571610d9a565b5b02179055509050505050505050565b600860009054906101000a900473ffffffffffffffffffffffffffffffffffffffff1673ffffffffffffffffffffffffffffffffffffffff163373ffffffffffffffffffffffffffffffffffffffff1614610611576040517f08c379a0000000000000000000000000000000000000000000000000000000008152600401610608906114b2565b60405180910390fd5b6001600860146101000a81548160ff021916908315150217905550565b610636610c7c565b60006040518060a0016040529081600082015481526020016001820154815260200160028201548152602001600382015481526020016004820160009054906101000a900460ff1660018111156106905761068f610d9a565b5b60018111156106a2576106a1610d9a565b5b81525050905090565b60006060600860149054906101000a900460ff16915063e4fc6b6d60e01b604051602401604051602081830303815290604052907bffffffffffffffffffffffffffffffffffffffffffffffffffffffff19166020820180517bffffffffffffffffffffffffffffffffffffffffffffffffffffffff838183161783525050505090509091565b7f000000000000000000000000000000000000000000000000000000000000000073ffffffffffffffffffffffffffffffffffffffff163373ffffffffffffffffffffffffffffffffffffffff16146107c0576040517f08c379a00000000000000000000000000000000000000000000000000000000081526004016107b79061151e565b60405180910390fd5b4260006003015410610807576040517f08c379a00000000000000000000000000000000000000000000000000000000081526004016107fe906115b0565b60405180910390fd5b6000600860009054906101000a900473ffffffffffffffffffffffffffffffffffffffff1673ffffffffffffffffffffffffffffffffffffffff1663125274e1306040518263ffffffff1660e01b815260040161086491906115d0565b602060405180830381865afa158015610881573d6000803e3d6000fd5b505050506040513d601f19601f820116820180604052508101906108a5919061132d565b905060008103610a0057600760009054906101000a900473ffffffffffffffffffffffffffffffffffffffff1673ffffffffffffffffffffffffffffffffffffffff16639bd9bbc6600560009054906101000a900473ffffffffffffffffffffffffffffffffffffffff16600760009054906101000a900473ffffffffffffffffffffffffffffffffffffffff1673ffffffffffffffffffffffffffffffffffffffff166370a08231306040518263ffffffff1660e01b815260040161096b91906115d0565b602060405180830381865afa158015610988573d6000803e3d6000fd5b505050506040513d601f19601f820116820180604052508101906109ac919061132d565b6040518363ffffffff1660e01b81526004016109c99291906115eb565b600060405180830381600087803b1580156109e357600080fd5b505af11580156109f7573d6000803e3d6000fd5b50505050610c25565b600081600060010154610a139190611389565b9050600081600760009054906101000a900473ffffffffffffffffffffffffffffffffffffffff1673ffffffffffffffffffffffffffffffffffffffff166370a08231306040518263ffffffff1660e01b8152600401610a7391906115d0565b602060405180830381865afa158015610a90573d6000803e3d6000fd5b505050506040513d601f19601f82011682018060405250810190610ab4919061132d565b610abe9190611627565b9050600760009054906101000a900473ffffffffffffffffffffffffffffffffffffffff1673ffffffffffffffffffffffffffffffffffffffff16639bd9bbc6600660009054906101000a900473ffffffffffffffffffffffffffffffffffffffff16846040518363ffffffff1660e01b8152600401610b3f9291906115eb565b600060405180830381600087803b158015610b5957600080fd5b505af1158015610b6d573d6000803e3d6000fd5b50505050600760009054906101000a900473ffffffffffffffffffffffffffffffffffffffff1673ffffffffffffffffffffffffffffffffffffffff16639bd9bbc6600560009054906101000a900473ffffffffffffffffffffffffffffffffffffffff16836040518363ffffffff1660e01b8152600401610bf09291906115eb565b600060405180830381600087803b158015610c0a57600080fd5b505af1158015610c1e573d6000803e3d6000fd5b5050505050505b6000600860146101000a81548160ff02191690831515021790555060008060040160006101000a81548160ff02191690836001811115610c6857610c67610d9a565b5b021790555050565b60008060030154905090565b6040518060a001604052806000801916815260200160008152602001600081526020016000815260200160006001811115610cba57610cb9610d9a565b5b81525090565b600060ff82169050919050565b610cd681610cc0565b82525050565b6000602082019050610cf16000830184610ccd565b92915050565b600080fd5b6000819050919050565b610d0f81610cfc565b8114610d1a57600080fd5b50565b600081359050610d2c81610d06565b92915050565b60008060408385031215610d4957610d48610cf7565b5b6000610d5785828601610d1d565b9250506020610d6885828601610d1d565b9150509250929050565b6000819050919050565b610d8581610d72565b82525050565b610d9481610cfc565b82525050565b7f4e487b7100000000000000000000000000000000000000000000000000000000600052602160045260246000fd5b60028110610dda57610dd9610d9a565b5b50565b6000819050610deb82610dc9565b919050565b6000610dfb82610ddd565b9050919050565b610e0b81610df0565b82525050565b60a082016000820151610e276000850182610d7c565b506020820151610e3a6020850182610d8b565b506040820151610e4d6040850182610d8b565b506060820151610e606060850182610d8b565b506080820151610e736080850182610e02565b50505050565b600060a082019050610e8e6000830184610e11565b92915050565b60008115159050919050565b610ea981610e94565b82525050565b600081519050919050565b600082825260208201905092915050565b60005b83811015610ee9578082015181840152602081019050610ece565b83811115610ef8576000848401525b50505050565b6000601f19601f8301169050919050565b6000610f1a82610eaf565b610f248185610eba565b9350610f34818560208601610ecb565b610f3d81610efe565b840191505092915050565b6000604082019050610f5d6000830185610ea0565b8181036020830152610f6f8184610f0f565b90509392505050565b610f8181610cfc565b82525050565b6000602082019050610f9c6000830184610f78565b92915050565b600082825260208201905092915050565b7f4f6e6c792063616c6c61626c6520627920737562736372696265722100000000600082015250565b6000610fe9601c83610fa2565b9150610ff482610fb3565b602082019050919050565b6000602082019050818103600083015261101881610fdc565b9050919050565b600073ffffffffffffffffffffffffffffffffffffffff82169050919050565b600061104a8261101f565b9050919050565b61105a8161103f565b82525050565b60006040820190506110756000830185611051565b6110826020830184611051565b9392505050565b61109281610e94565b811461109d57600080fd5b50565b6000815190506110af81611089565b92915050565b6000602082840312156110cb576110ca610cf7565b5b60006110d9848285016110a0565b91505092915050565b7f436f6e7472616374206973206e6f7420616e20617574686f72697a6564204f7060008201527f657261746f7220666f722063616c6c6572210000000000000000000000000000602082015250565b600061113e603283610fa2565b9150611149826110e2565b604082019050919050565b6000602082019050818103600083015261116d81611131565b9050919050565b7f537562736372697074696f6e2063616e6e6f7420657870697265206265666f7260008201527f65206372656174696f6e20646174652100000000000000000000000000000000602082015250565b60006111d0603083610fa2565b91506111db82611174565b604082019050919050565b600060208201905081810360008301526111ff816111c3565b9050919050565b7f537562736372697074696f6e20616c7265616479206163746976652100000000600082015250565b600061123c601c83610fa2565b915061124782611206565b602082019050919050565b6000602082019050818103600083015261126b8161122f565b9050919050565b60008160601b9050919050565b600061128a82611272565b9050919050565b600061129c8261127f565b9050919050565b6112b46112af8261103f565b611291565b82525050565b6000819050919050565b6112d56112d082610cfc565b6112ba565b82525050565b60006112e782866112a3565b6014820191506112f782856112c4565b60208201915061130782846112c4565b602082019150819050949350505050565b60008151905061132781610d06565b92915050565b60006020828403121561134357611342610cf7565b5b600061135184828501611318565b91505092915050565b7f4e487b7100000000000000000000000000000000000000000000000000000000600052601160045260246000fd5b600061139482610cfc565b915061139f83610cfc565b9250817fffffffffffffffffffffffffffffffffffffffffffffffffffffffffffffffff04831182151516156113d8576113d761135a565b5b828202905092915050565b50565b60006113f3600083610eba565b91506113fe826113e3565b600082019050919050565b600060a08201905061141e6000830186611051565b61142b6020830185611051565b6114386040830184610f78565b8181036060830152611449816113e6565b9050818103608083015261145c816113e6565b9050949350505050565b7f4f6e6c792063616c6c61626c65206279206f7261636c65210000000000000000600082015250565b600061149c601883610fa2565b91506114a782611466565b602082019050919050565b600060208201905081810360008301526114cb8161148f565b9050919050565b7f4f6e6c79204f7073000000000000000000000000000000000000000000000000600082015250565b6000611508600883610fa2565b9150611513826114d2565b602082019050919050565b60006020820190508181036000830152611537816114fb565b9050919050565b7f537562736372697074696f6e20686173206e6f7420657870697265642079657460008201527f2e00000000000000000000000000000000000000000000000000000000000000602082015250565b600061159a602183610fa2565b91506115a58261153e565b604082019050919050565b600060208201905081810360008301526115c98161158d565b9050919050565b60006020820190506115e56000830184611051565b92915050565b60006060820190506116006000830185611051565b61160d6020830184610f78565b818103604083015261161e816113e6565b90509392505050565b600061163282610cfc565b915061163d83610cfc565b9250828210156116505761164f61135a565b5b82820390509291505056fea2646970667358221220e1ca1d1461723aeb0971a31a12f5719c990e86cf1d4aee4655e0f0906e01f7e264736f6c634300080e0033a2646970667358221220f333f1bddc540a566332868586a73985b6e738f77944162f22e7a1a4a0a6950464736f6c634300080e0033",
  "linkReferences": {},
  "deployedLinkReferences": {}
}