{
  "_format": "hh-sol-artifact-1",
  "contractName": "SubscriptionStore",
  "sourceName": "contracts/SubscriptionStore.sol",
  "abi": [
    {
      "inputs": [
        {
          "internalType": "address",
          "name": "tokenAddress",
          "type": "address"
        }
      ],
      "stateMutability": "nonpayable",
      "type": "constructor"
    },
    {
      "anonymous": false,
      "inputs": [
        {
          "indexed": true,
          "internalType": "address",
          "name": "previousOwner",
          "type": "address"
        },
        {
          "indexed": true,
          "internalType": "address",
          "name": "newOwner",
          "type": "address"
        }
      ],
      "name": "OwnershipTransferred",
      "type": "event"
    },
    {
      "inputs": [],
      "name": "owner",
      "outputs": [
        {
          "internalType": "address",
          "name": "",
          "type": "address"
        }
      ],
      "stateMutability": "view",
      "type": "function"
    },
    {
      "inputs": [],
      "name": "registerUser",
      "outputs": [
        {
          "internalType": "address",
          "name": "",
          "type": "address"
        }
      ],
      "stateMutability": "nonpayable",
      "type": "function"
    },
    {
      "inputs": [],
      "name": "renounceOwnership",
      "outputs": [],
      "stateMutability": "nonpayable",
      "type": "function"
    },
    {
      "inputs": [
        {
          "internalType": "address",
          "name": "oracleAddress",
          "type": "address"
        }
      ],
      "name": "setUsageOracle",
      "outputs": [],
      "stateMutability": "nonpayable",
      "type": "function"
    },
    {
      "inputs": [
        {
          "internalType": "address",
          "name": "userAddress",
          "type": "address"
        }
      ],
      "name": "subscriptionFromUser",
      "outputs": [
        {
          "internalType": "address",
          "name": "",
          "type": "address"
        }
      ],
      "stateMutability": "view",
      "type": "function"
    },
    {
      "inputs": [],
      "name": "token",
      "outputs": [
        {
          "internalType": "address",
          "name": "",
          "type": "address"
        }
      ],
      "stateMutability": "view",
      "type": "function"
    },
    {
      "inputs": [
        {
          "internalType": "address",
          "name": "newOwner",
          "type": "address"
        }
      ],
      "name": "transferOwnership",
      "outputs": [],
      "stateMutability": "nonpayable",
      "type": "function"
    },
    {
      "inputs": [],
      "name": "usageOracle",
      "outputs": [
        {
          "internalType": "address",
          "name": "",
          "type": "address"
        }
      ],
      "stateMutability": "view",
      "type": "function"
    }
  ],
  "bytecode": "0x60806040523480156200001157600080fd5b5060405162002661380380620026618339818101604052810190620000379190620001d5565b620000576200004b6200009f60201b60201c565b620000a760201b60201c565b80600260006101000a81548173ffffffffffffffffffffffffffffffffffffffff021916908373ffffffffffffffffffffffffffffffffffffffff1602179055505062000207565b600033905090565b60008060009054906101000a900473ffffffffffffffffffffffffffffffffffffffff169050816000806101000a81548173ffffffffffffffffffffffffffffffffffffffff021916908373ffffffffffffffffffffffffffffffffffffffff1602179055508173ffffffffffffffffffffffffffffffffffffffff168173ffffffffffffffffffffffffffffffffffffffff167f8be0079c531659141344cd1fd0a4f28419497f9722a3daafe3b4186f6b6457e060405160405180910390a35050565b600080fd5b600073ffffffffffffffffffffffffffffffffffffffff82169050919050565b60006200019d8262000170565b9050919050565b620001af8162000190565b8114620001bb57600080fd5b50565b600081519050620001cf81620001a4565b92915050565b600060208284031215620001ee57620001ed6200016b565b5b6000620001fe84828501620001be565b91505092915050565b61244a80620002176000396000f3fe60806040523480156200001157600080fd5b5060043610620000945760003560e01c8063c07413fa1162000063578063c07413fa146200011f578063db5e73f01462000141578063f2fde38b1462000161578063fc0c546a14620001815762000094565b80634d3820eb1462000099578063715018a614620000bb578063777a686614620000c75780638da5cb5b14620000fd575b600080fd5b620000a3620001a3565b604051620000b29190620009d8565b60405180910390f35b620000c562000415565b005b620000e56004803603810190620000df919062000a2b565b620004a6565b604051620000f49190620009d8565b60405180910390f35b62000107620005df565b604051620001169190620009d8565b60405180910390f35b6200012962000608565b604051620001389190620009d8565b60405180910390f35b6200015f600480360381019062000159919062000a2b565b620006c5565b005b6200017f600480360381019062000179919062000a2b565b6200078c565b005b6200018b6200088f565b6040516200019a9190620009d8565b60405180910390f35b60008073ffffffffffffffffffffffffffffffffffffffff16600160009054906101000a900473ffffffffffffffffffffffffffffffffffffffff1673ffffffffffffffffffffffffffffffffffffffff160362000238576040517f08c379a00000000000000000000000000000000000000000000000000000000081526004016200022f9062000abe565b60405180910390fd5b600073ffffffffffffffffffffffffffffffffffffffff16600360003373ffffffffffffffffffffffffffffffffffffffff1673ffffffffffffffffffffffffffffffffffffffff16815260200190815260200160002060009054906101000a900473ffffffffffffffffffffffffffffffffffffffff1673ffffffffffffffffffffffffffffffffffffffff161462000309576040517f08c379a0000000000000000000000000000000000000000000000000000000008152600401620003009062000b56565b60405180910390fd5b60003330600260009054906101000a900473ffffffffffffffffffffffffffffffffffffffff16600160009054906101000a900473ffffffffffffffffffffffffffffffffffffffff16604051620003619062000985565b62000370949392919062000be3565b604051809103906000f0801580156200038d573d6000803e3d6000fd5b50905080600360003373ffffffffffffffffffffffffffffffffffffffff1673ffffffffffffffffffffffffffffffffffffffff16815260200190815260200160002060006101000a81548173ffffffffffffffffffffffffffffffffffffffff021916908373ffffffffffffffffffffffffffffffffffffffff1602179055508091505090565b6200041f620008b9565b73ffffffffffffffffffffffffffffffffffffffff166200043f620005df565b73ffffffffffffffffffffffffffffffffffffffff161462000498576040517f08c379a00000000000000000000000000000000000000000000000000000000081526004016200048f9062000c80565b60405180910390fd5b620004a46000620008c1565b565b60008073ffffffffffffffffffffffffffffffffffffffff16600360008473ffffffffffffffffffffffffffffffffffffffff1673ffffffffffffffffffffffffffffffffffffffff16815260200190815260200160002060009054906101000a900473ffffffffffffffffffffffffffffffffffffffff1673ffffffffffffffffffffffffffffffffffffffff160362000578576040517f08c379a00000000000000000000000000000000000000000000000000000000081526004016200056f9062000d18565b60405180910390fd5b600360008373ffffffffffffffffffffffffffffffffffffffff1673ffffffffffffffffffffffffffffffffffffffff16815260200190815260200160002060009054906101000a900473ffffffffffffffffffffffffffffffffffffffff169050919050565b60008060009054906101000a900473ffffffffffffffffffffffffffffffffffffffff16905090565b60008073ffffffffffffffffffffffffffffffffffffffff16600160009054906101000a900473ffffffffffffffffffffffffffffffffffffffff1673ffffffffffffffffffffffffffffffffffffffff16036200069d576040517f08c379a0000000000000000000000000000000000000000000000000000000008152600401620006949062000abe565b60405180910390fd5b600160009054906101000a900473ffffffffffffffffffffffffffffffffffffffff16905090565b620006cf620008b9565b73ffffffffffffffffffffffffffffffffffffffff16620006ef620005df565b73ffffffffffffffffffffffffffffffffffffffff161462000748576040517f08c379a00000000000000000000000000000000000000000000000000000000081526004016200073f9062000c80565b60405180910390fd5b80600160006101000a81548173ffffffffffffffffffffffffffffffffffffffff021916908373ffffffffffffffffffffffffffffffffffffffff16021790555050565b62000796620008b9565b73ffffffffffffffffffffffffffffffffffffffff16620007b6620005df565b73ffffffffffffffffffffffffffffffffffffffff16146200080f576040517f08c379a0000000000000000000000000000000000000000000000000000000008152600401620008069062000c80565b60405180910390fd5b600073ffffffffffffffffffffffffffffffffffffffff168173ffffffffffffffffffffffffffffffffffffffff160362000881576040517f08c379a0000000000000000000000000000000000000000000000000000000008152600401620008789062000db0565b60405180910390fd5b6200088c81620008c1565b50565b6000600260009054906101000a900473ffffffffffffffffffffffffffffffffffffffff16905090565b600033905090565b60008060009054906101000a900473ffffffffffffffffffffffffffffffffffffffff169050816000806101000a81548173ffffffffffffffffffffffffffffffffffffffff021916908373ffffffffffffffffffffffffffffffffffffffff1602179055508173ffffffffffffffffffffffffffffffffffffffff168173ffffffffffffffffffffffffffffffffffffffff167f8be0079c531659141344cd1fd0a4f28419497f9722a3daafe3b4186f6b6457e060405160405180910390a35050565b6116428062000dd383390190565b600073ffffffffffffffffffffffffffffffffffffffff82169050919050565b6000620009c08262000993565b9050919050565b620009d281620009b3565b82525050565b6000602082019050620009ef6000830184620009c7565b92915050565b600080fd5b62000a0581620009b3565b811462000a1157600080fd5b50565b60008135905062000a2581620009fa565b92915050565b60006020828403121562000a445762000a43620009f5565b5b600062000a548482850162000a14565b91505092915050565b600082825260208201905092915050565b7f4f7261636c65206164647265737320686173206e6f74206265656e2073657421600082015250565b600062000aa660208362000a5d565b915062000ab38262000a6e565b602082019050919050565b6000602082019050818103600083015262000ad98162000a97565b9050919050565b7f43616c6c657220616c72656164792068617320616e206163746976652073756260008201527f736372697074696f6e20636f6e74726163742100000000000000000000000000602082015250565b600062000b3e60338362000a5d565b915062000b4b8262000ae0565b604082019050919050565b6000602082019050818103600083015262000b718162000b2f565b9050919050565b6000819050919050565b600062000ba362000b9d62000b978462000993565b62000b78565b62000993565b9050919050565b600062000bb78262000b82565b9050919050565b600062000bcb8262000baa565b9050919050565b62000bdd8162000bbe565b82525050565b600060808201905062000bfa6000830187620009c7565b62000c096020830186620009c7565b62000c18604083018562000bd2565b62000c276060830184620009c7565b95945050505050565b7f4f776e61626c653a2063616c6c6572206973206e6f7420746865206f776e6572600082015250565b600062000c6860208362000a5d565b915062000c758262000c30565b602082019050919050565b6000602082019050818103600083015262000c9b8162000c59565b9050919050565b7f557365722077697468206164647265737320686173206e6f207375627363726960008201527f7074696f6e20636f6e7472616374210000000000000000000000000000000000602082015250565b600062000d00602f8362000a5d565b915062000d0d8262000ca2565b604082019050919050565b6000602082019050818103600083015262000d338162000cf1565b9050919050565b7f4f776e61626c653a206e6577206f776e657220697320746865207a65726f206160008201527f6464726573730000000000000000000000000000000000000000000000000000602082015250565b600062000d9860268362000a5d565b915062000da58262000d3a565b604082019050919050565b6000602082019050818103600083015262000dcb8162000d89565b905091905056fe60806040523480156200001157600080fd5b5060405162001642380380620016428339818101604052810190620000379190620001f4565b83600560006101000a81548173ffffffffffffffffffffffffffffffffffffffff021916908373ffffffffffffffffffffffffffffffffffffffff16021790555082600660006101000a81548173ffffffffffffffffffffffffffffffffffffffff021916908373ffffffffffffffffffffffffffffffffffffffff16021790555081600760006101000a81548173ffffffffffffffffffffffffffffffffffffffff021916908373ffffffffffffffffffffffffffffffffffffffff16021790555080600860006101000a81548173ffffffffffffffffffffffffffffffffffffffff021916908373ffffffffffffffffffffffffffffffffffffffff1602179055505050505062000266565b600080fd5b600073ffffffffffffffffffffffffffffffffffffffff82169050919050565b600062000177826200014a565b9050919050565b62000189816200016a565b81146200019557600080fd5b50565b600081519050620001a9816200017e565b92915050565b6000620001bc826200016a565b9050919050565b620001ce81620001af565b8114620001da57600080fd5b50565b600081519050620001ee81620001c3565b92915050565b6000806000806080858703121562000211576200021062000145565b5b6000620002218782880162000198565b9450506020620002348782880162000198565b93505060406200024787828801620001dd565b92505060606200025a8782880162000198565b91505092959194509250565b6113cc80620002766000396000f3fe608060405234801561001057600080fd5b50600436106100575760003560e01c80631aea10c21461005c5780632d2713c01461007a5780633b0443f4146100965780638ba9c553146100a0578063fa276e85146100be575b600080fd5b6100646100dc565b6040516100719190610b4a565b60405180910390f35b610094600480360381019061008f9190610ba0565b610107565b005b61009e610532565b005b6100a86105cc565b6040516100b59190610ce7565b60405180910390f35b6100c6610649565b6040516100d39190610d11565b60405180910390f35b60008060040160009054906101000a900460ff16600181111561010257610101610c08565b5b905090565b600560009054906101000a900473ffffffffffffffffffffffffffffffffffffffff1673ffffffffffffffffffffffffffffffffffffffff163373ffffffffffffffffffffffffffffffffffffffff1614610197576040517f08c379a000000000000000000000000000000000000000000000000000000000815260040161018e90610d89565b60405180910390fd5b600760009054906101000a900473ffffffffffffffffffffffffffffffffffffffff1673ffffffffffffffffffffffffffffffffffffffff1663d95b637130336040518363ffffffff1660e01b81526004016101f4929190610dea565b602060405180830381865afa158015610211573d6000803e3d6000fd5b505050506040513d601f19601f820116820180604052508101906102359190610e4b565b610274576040517f08c379a000000000000000000000000000000000000000000000000000000000815260040161026b90610eea565b60405180910390fd5b8082106102b6576040517f08c379a00000000000000000000000000000000000000000000000000000000081526004016102ad90610f7c565b60405180910390fd5b600060018111156102ca576102c9610c08565b5b600060040160009054906101000a900460ff1660018111156102ef576102ee610c08565b5b1461032f576040517f08c379a000000000000000000000000000000000000000000000000000000000815260040161032690610fe8565b60405180910390fd5b600033838360405160200161034693929190611071565b6040516020818303038152906040528051906020012090506000600860009054906101000a900473ffffffffffffffffffffffffffffffffffffffff1673ffffffffffffffffffffffffffffffffffffffff16633a301be86040518163ffffffff1660e01b8152600401602060405180830381865afa1580156103cd573d6000803e3d6000fd5b505050506040513d601f19601f820116820180604052508101906103f191906110c3565b905060006105a082610403919061111f565b9050600760009054906101000a900473ffffffffffffffffffffffffffffffffffffffff1673ffffffffffffffffffffffffffffffffffffffff166362ad1b833330846040518463ffffffff1660e01b8152600401610464939291906111b0565b600060405180830381600087803b15801561047e57600080fd5b505af1158015610492573d6000803e3d6000fd5b505050506040518060a001604052808481526020018381526020018681526020018581526020016001808111156104cc576104cb610c08565b5b815250600080820151816000015560208201518160010155604082015181600201556060820151816003015560808201518160040160006101000a81548160ff0219169083600181111561052357610522610c08565b5b02179055509050505050505050565b600860009054906101000a900473ffffffffffffffffffffffffffffffffffffffff1673ffffffffffffffffffffffffffffffffffffffff163373ffffffffffffffffffffffffffffffffffffffff16146105c2576040517f08c379a00000000000000000000000000000000000000000000000000000000081526004016105b990611259565b60405180910390fd5b6105ca610655565b565b6105d4610aea565b60006040518060a0016040529081600082015481526020016001820154815260200160028201548152602001600382015481526020016004820160009054906101000a900460ff16600181111561062e5761062d610c08565b5b60018111156106405761063f610c08565b5b81525050905090565b60008060030154905090565b426000600301541061069c576040517f08c379a0000000000000000000000000000000000000000000000000000000008152600401610693906112eb565b60405180910390fd5b6000600860009054906101000a900473ffffffffffffffffffffffffffffffffffffffff1673ffffffffffffffffffffffffffffffffffffffff1663125274e1306040518263ffffffff1660e01b81526004016106f9919061130b565b602060405180830381865afa158015610716573d6000803e3d6000fd5b505050506040513d601f19601f8201168201806040525081019061073a91906110c3565b90506000810361089557600760009054906101000a900473ffffffffffffffffffffffffffffffffffffffff1673ffffffffffffffffffffffffffffffffffffffff16639bd9bbc6600560009054906101000a900473ffffffffffffffffffffffffffffffffffffffff16600760009054906101000a900473ffffffffffffffffffffffffffffffffffffffff1673ffffffffffffffffffffffffffffffffffffffff166370a08231306040518263ffffffff1660e01b8152600401610800919061130b565b602060405180830381865afa15801561081d573d6000803e3d6000fd5b505050506040513d601f19601f8201168201806040525081019061084191906110c3565b6040518363ffffffff1660e01b815260040161085e929190611326565b600060405180830381600087803b15801561087857600080fd5b505af115801561088c573d6000803e3d6000fd5b50505050610aba565b6000816000600101546108a8919061111f565b9050600081600760009054906101000a900473ffffffffffffffffffffffffffffffffffffffff1673ffffffffffffffffffffffffffffffffffffffff166370a08231306040518263ffffffff1660e01b8152600401610908919061130b565b602060405180830381865afa158015610925573d6000803e3d6000fd5b505050506040513d601f19601f8201168201806040525081019061094991906110c3565b6109539190611362565b9050600760009054906101000a900473ffffffffffffffffffffffffffffffffffffffff1673ffffffffffffffffffffffffffffffffffffffff16639bd9bbc6600660009054906101000a900473ffffffffffffffffffffffffffffffffffffffff16846040518363ffffffff1660e01b81526004016109d4929190611326565b600060405180830381600087803b1580156109ee57600080fd5b505af1158015610a02573d6000803e3d6000fd5b50505050600760009054906101000a900473ffffffffffffffffffffffffffffffffffffffff1673ffffffffffffffffffffffffffffffffffffffff16639bd9bbc6600560009054906101000a900473ffffffffffffffffffffffffffffffffffffffff16836040518363ffffffff1660e01b8152600401610a85929190611326565b600060405180830381600087803b158015610a9f57600080fd5b505af1158015610ab3573d6000803e3d6000fd5b5050505050505b60008060040160006101000a81548160ff02191690836001811115610ae257610ae1610c08565b5b021790555050565b6040518060a001604052806000801916815260200160008152602001600081526020016000815260200160006001811115610b2857610b27610c08565b5b81525090565b600060ff82169050919050565b610b4481610b2e565b82525050565b6000602082019050610b5f6000830184610b3b565b92915050565b600080fd5b6000819050919050565b610b7d81610b6a565b8114610b8857600080fd5b50565b600081359050610b9a81610b74565b92915050565b60008060408385031215610bb757610bb6610b65565b5b6000610bc585828601610b8b565b9250506020610bd685828601610b8b565b9150509250929050565b6000819050919050565b610bf381610be0565b82525050565b610c0281610b6a565b82525050565b7f4e487b7100000000000000000000000000000000000000000000000000000000600052602160045260246000fd5b60028110610c4857610c47610c08565b5b50565b6000819050610c5982610c37565b919050565b6000610c6982610c4b565b9050919050565b610c7981610c5e565b82525050565b60a082016000820151610c956000850182610bea565b506020820151610ca86020850182610bf9565b506040820151610cbb6040850182610bf9565b506060820151610cce6060850182610bf9565b506080820151610ce16080850182610c70565b50505050565b600060a082019050610cfc6000830184610c7f565b92915050565b610d0b81610b6a565b82525050565b6000602082019050610d266000830184610d02565b92915050565b600082825260208201905092915050565b7f4f6e6c792063616c6c61626c6520627920737562736372696265722100000000600082015250565b6000610d73601c83610d2c565b9150610d7e82610d3d565b602082019050919050565b60006020820190508181036000830152610da281610d66565b9050919050565b600073ffffffffffffffffffffffffffffffffffffffff82169050919050565b6000610dd482610da9565b9050919050565b610de481610dc9565b82525050565b6000604082019050610dff6000830185610ddb565b610e0c6020830184610ddb565b9392505050565b60008115159050919050565b610e2881610e13565b8114610e3357600080fd5b50565b600081519050610e4581610e1f565b92915050565b600060208284031215610e6157610e60610b65565b5b6000610e6f84828501610e36565b91505092915050565b7f436f6e7472616374206973206e6f7420616e20617574686f72697a6564204f7060008201527f657261746f7220666f722063616c6c6572210000000000000000000000000000602082015250565b6000610ed4603283610d2c565b9150610edf82610e78565b604082019050919050565b60006020820190508181036000830152610f0381610ec7565b9050919050565b7f537562736372697074696f6e2063616e6e6f7420657870697265206265666f7260008201527f65206372656174696f6e20646174652100000000000000000000000000000000602082015250565b6000610f66603083610d2c565b9150610f7182610f0a565b604082019050919050565b60006020820190508181036000830152610f9581610f59565b9050919050565b7f537562736372697074696f6e20616c7265616479206163746976652100000000600082015250565b6000610fd2601c83610d2c565b9150610fdd82610f9c565b602082019050919050565b6000602082019050818103600083015261100181610fc5565b9050919050565b60008160601b9050919050565b600061102082611008565b9050919050565b600061103282611015565b9050919050565b61104a61104582610dc9565b611027565b82525050565b6000819050919050565b61106b61106682610b6a565b611050565b82525050565b600061107d8286611039565b60148201915061108d828561105a565b60208201915061109d828461105a565b602082019150819050949350505050565b6000815190506110bd81610b74565b92915050565b6000602082840312156110d9576110d8610b65565b5b60006110e7848285016110ae565b91505092915050565b7f4e487b7100000000000000000000000000000000000000000000000000000000600052601160045260246000fd5b600061112a82610b6a565b915061113583610b6a565b9250817fffffffffffffffffffffffffffffffffffffffffffffffffffffffffffffffff048311821515161561116e5761116d6110f0565b5b828202905092915050565b600082825260208201905092915050565b50565b600061119a600083611179565b91506111a58261118a565b600082019050919050565b600060a0820190506111c56000830186610ddb565b6111d26020830185610ddb565b6111df6040830184610d02565b81810360608301526111f08161118d565b905081810360808301526112038161118d565b9050949350505050565b7f4f6e6c792063616c6c61626c65206279206f7261636c65210000000000000000600082015250565b6000611243601883610d2c565b915061124e8261120d565b602082019050919050565b6000602082019050818103600083015261127281611236565b9050919050565b7f537562736372697074696f6e20686173206e6f7420657870697265642079657460008201527f2e00000000000000000000000000000000000000000000000000000000000000602082015250565b60006112d5602183610d2c565b91506112e082611279565b604082019050919050565b60006020820190508181036000830152611304816112c8565b9050919050565b60006020820190506113206000830184610ddb565b92915050565b600060608201905061133b6000830185610ddb565b6113486020830184610d02565b81810360408301526113598161118d565b90509392505050565b600061136d82610b6a565b915061137883610b6a565b92508282101561138b5761138a6110f0565b5b82820390509291505056fea2646970667358221220b5461e5ed1903f9ddb4fb28b833e3ed47252a01463421b00ac251f92f191fc6f64736f6c634300080e0033a26469706673582212200070829a0f8e57d0427535f435e492155b6b0edc587206d92c643ce755e7d7d464736f6c634300080e0033",
  "linkReferences": {},
  "deployedLinkReferences": {}
}