{
  "_format": "hh-sol-artifact-1",
  "contractName": "SimpleToken",
  "sourceName": "contracts/SimpleToken.sol",
  "abi": [
    {
      "inputs": [
        {
          "internalType": "uint256",
          "name": "initialSupply",
          "type": "uint256"
        },
        {
          "internalType": "address[]",
          "name": "defaultOperators",
          "type": "address[]"
        },
        {
          "internalType": "address payable",
          "name": "owner_",
          "type": "address"
        }
      ],
      "stateMutability": "nonpayable",
      "type": "constructor"
    },
    {
      "anonymous": false,
      "inputs": [
        {
          "indexed": true,
          "internalType": "address",
          "name": "owner",
          "type": "address"
        },
        {
          "indexed": true,
          "internalType": "address",
          "name": "spender",
          "type": "address"
        },
        {
          "indexed": false,
          "internalType": "uint256",
          "name": "value",
          "type": "uint256"
        }
      ],
      "name": "Approval",
      "type": "event"
    },
    {
      "anonymous": false,
      "inputs": [
        {
          "indexed": true,
          "internalType": "address",
          "name": "operator",
          "type": "address"
        },
        {
          "indexed": true,
          "internalType": "address",
          "name": "tokenHolder",
          "type": "address"
        }
      ],
      "name": "AuthorizedOperator",
      "type": "event"
    },
    {
      "anonymous": false,
      "inputs": [
        {
          "indexed": true,
          "internalType": "address",
          "name": "operator",
          "type": "address"
        },
        {
          "indexed": true,
          "internalType": "address",
          "name": "from",
          "type": "address"
        },
        {
          "indexed": false,
          "internalType": "uint256",
          "name": "amount",
          "type": "uint256"
        },
        {
          "indexed": false,
          "internalType": "bytes",
          "name": "data",
          "type": "bytes"
        },
        {
          "indexed": false,
          "internalType": "bytes",
          "name": "operatorData",
          "type": "bytes"
        }
      ],
      "name": "Burned",
      "type": "event"
    },
    {
      "anonymous": false,
      "inputs": [
        {
          "indexed": true,
          "internalType": "address",
          "name": "operator",
          "type": "address"
        },
        {
          "indexed": true,
          "internalType": "address",
          "name": "to",
          "type": "address"
        },
        {
          "indexed": false,
          "internalType": "uint256",
          "name": "amount",
          "type": "uint256"
        },
        {
          "indexed": false,
          "internalType": "bytes",
          "name": "data",
          "type": "bytes"
        },
        {
          "indexed": false,
          "internalType": "bytes",
          "name": "operatorData",
          "type": "bytes"
        }
      ],
      "name": "Minted",
      "type": "event"
    },
    {
      "anonymous": false,
      "inputs": [
        {
          "indexed": true,
          "internalType": "address",
          "name": "operator",
          "type": "address"
        },
        {
          "indexed": true,
          "internalType": "address",
          "name": "tokenHolder",
          "type": "address"
        }
      ],
      "name": "RevokedOperator",
      "type": "event"
    },
    {
      "anonymous": false,
      "inputs": [
        {
          "indexed": true,
          "internalType": "address",
          "name": "operator",
          "type": "address"
        },
        {
          "indexed": true,
          "internalType": "address",
          "name": "from",
          "type": "address"
        },
        {
          "indexed": true,
          "internalType": "address",
          "name": "to",
          "type": "address"
        },
        {
          "indexed": false,
          "internalType": "uint256",
          "name": "amount",
          "type": "uint256"
        },
        {
          "indexed": false,
          "internalType": "bytes",
          "name": "data",
          "type": "bytes"
        },
        {
          "indexed": false,
          "internalType": "bytes",
          "name": "operatorData",
          "type": "bytes"
        }
      ],
      "name": "Sent",
      "type": "event"
    },
    {
      "anonymous": false,
      "inputs": [
        {
          "indexed": true,
          "internalType": "address",
          "name": "from",
          "type": "address"
        },
        {
          "indexed": true,
          "internalType": "address",
          "name": "to",
          "type": "address"
        },
        {
          "indexed": false,
          "internalType": "uint256",
          "name": "value",
          "type": "uint256"
        }
      ],
      "name": "Transfer",
      "type": "event"
    },
    {
      "inputs": [
        {
          "internalType": "address",
          "name": "holder",
          "type": "address"
        },
        {
          "internalType": "address",
          "name": "spender",
          "type": "address"
        }
      ],
      "name": "allowance",
      "outputs": [
        {
          "internalType": "uint256",
          "name": "",
          "type": "uint256"
        }
      ],
      "stateMutability": "view",
      "type": "function"
    },
    {
      "inputs": [
        {
          "internalType": "address",
          "name": "spender",
          "type": "address"
        },
        {
          "internalType": "uint256",
          "name": "value",
          "type": "uint256"
        }
      ],
      "name": "approve",
      "outputs": [
        {
          "internalType": "bool",
          "name": "",
          "type": "bool"
        }
      ],
      "stateMutability": "nonpayable",
      "type": "function"
    },
    {
      "inputs": [
        {
          "internalType": "address",
          "name": "operator",
          "type": "address"
        }
      ],
      "name": "authorizeOperator",
      "outputs": [],
      "stateMutability": "nonpayable",
      "type": "function"
    },
    {
      "inputs": [
        {
          "internalType": "address",
          "name": "tokenHolder",
          "type": "address"
        }
      ],
      "name": "balanceOf",
      "outputs": [
        {
          "internalType": "uint256",
          "name": "",
          "type": "uint256"
        }
      ],
      "stateMutability": "view",
      "type": "function"
    },
    {
      "inputs": [
        {
          "internalType": "uint256",
          "name": "amount",
          "type": "uint256"
        },
        {
          "internalType": "bytes",
          "name": "data",
          "type": "bytes"
        }
      ],
      "name": "burn",
      "outputs": [],
      "stateMutability": "nonpayable",
      "type": "function"
    },
    {
      "inputs": [],
      "name": "decimals",
      "outputs": [
        {
          "internalType": "uint8",
          "name": "",
          "type": "uint8"
        }
      ],
      "stateMutability": "pure",
      "type": "function"
    },
    {
      "inputs": [],
      "name": "defaultOperators",
      "outputs": [
        {
          "internalType": "address[]",
          "name": "",
          "type": "address[]"
        }
      ],
      "stateMutability": "view",
      "type": "function"
    },
    {
      "inputs": [],
      "name": "destroy",
      "outputs": [],
      "stateMutability": "nonpayable",
      "type": "function"
    },
    {
      "inputs": [],
      "name": "granularity",
      "outputs": [
        {
          "internalType": "uint256",
          "name": "",
          "type": "uint256"
        }
      ],
      "stateMutability": "view",
      "type": "function"
    },
    {
      "inputs": [
        {
          "internalType": "address",
          "name": "operator",
          "type": "address"
        },
        {
          "internalType": "address",
          "name": "tokenHolder",
          "type": "address"
        }
      ],
      "name": "isOperatorFor",
      "outputs": [
        {
          "internalType": "bool",
          "name": "",
          "type": "bool"
        }
      ],
      "stateMutability": "view",
      "type": "function"
    },
    {
      "inputs": [],
      "name": "name",
      "outputs": [
        {
          "internalType": "string",
          "name": "",
          "type": "string"
        }
      ],
      "stateMutability": "view",
      "type": "function"
    },
    {
      "inputs": [
        {
          "internalType": "address",
          "name": "account",
          "type": "address"
        },
        {
          "internalType": "uint256",
          "name": "amount",
          "type": "uint256"
        },
        {
          "internalType": "bytes",
          "name": "data",
          "type": "bytes"
        },
        {
          "internalType": "bytes",
          "name": "operatorData",
          "type": "bytes"
        }
      ],
      "name": "operatorBurn",
      "outputs": [],
      "stateMutability": "nonpayable",
      "type": "function"
    },
    {
      "inputs": [
        {
          "internalType": "address",
          "name": "sender",
          "type": "address"
        },
        {
          "internalType": "address",
          "name": "recipient",
          "type": "address"
        },
        {
          "internalType": "uint256",
          "name": "amount",
          "type": "uint256"
        },
        {
          "internalType": "bytes",
          "name": "data",
          "type": "bytes"
        },
        {
          "internalType": "bytes",
          "name": "operatorData",
          "type": "bytes"
        }
      ],
      "name": "operatorSend",
      "outputs": [],
      "stateMutability": "nonpayable",
      "type": "function"
    },
    {
      "inputs": [
        {
          "internalType": "address",
          "name": "operator",
          "type": "address"
        }
      ],
      "name": "revokeOperator",
      "outputs": [],
      "stateMutability": "nonpayable",
      "type": "function"
    },
    {
      "inputs": [
        {
          "internalType": "address",
          "name": "recipient",
          "type": "address"
        },
        {
          "internalType": "uint256",
          "name": "amount",
          "type": "uint256"
        },
        {
          "internalType": "bytes",
          "name": "data",
          "type": "bytes"
        }
      ],
      "name": "send",
      "outputs": [],
      "stateMutability": "nonpayable",
      "type": "function"
    },
    {
      "inputs": [],
      "name": "symbol",
      "outputs": [
        {
          "internalType": "string",
          "name": "",
          "type": "string"
        }
      ],
      "stateMutability": "view",
      "type": "function"
    },
    {
      "inputs": [],
      "name": "totalSupply",
      "outputs": [
        {
          "internalType": "uint256",
          "name": "",
          "type": "uint256"
        }
      ],
      "stateMutability": "view",
      "type": "function"
    },
    {
      "inputs": [
        {
          "internalType": "address",
          "name": "recipient",
          "type": "address"
        },
        {
          "internalType": "uint256",
          "name": "amount",
          "type": "uint256"
        }
      ],
      "name": "transfer",
      "outputs": [
        {
          "internalType": "bool",
          "name": "",
          "type": "bool"
        }
      ],
      "stateMutability": "nonpayable",
      "type": "function"
    },
    {
      "inputs": [
        {
          "internalType": "address",
          "name": "holder",
          "type": "address"
        },
        {
          "internalType": "address",
          "name": "recipient",
          "type": "address"
        },
        {
          "internalType": "uint256",
          "name": "amount",
          "type": "uint256"
        }
      ],
      "name": "transferFrom",
      "outputs": [
        {
          "internalType": "bool",
          "name": "",
          "type": "bool"
        }
      ],
      "stateMutability": "nonpayable",
      "type": "function"
    }
  ],
  "bytecode": "0x60806040523480156200001157600080fd5b5060405162003cb938038062003cb9833981810160405281019062000037919062000b3d565b6040518060400160405280600b81526020017f53696d706c65546f6b656e0000000000000000000000000000000000000000008152506040518060400160405280600381526020017f53494d0000000000000000000000000000000000000000000000000000000000815250838260029080519060200190620000bc92919062000790565b508160039080519060200190620000d592919062000790565b508060049080519060200190620000ee92919062000821565b5060005b8151811015620001875760016005600084848151811062000118576200011762000bb8565b5b602002602001015173ffffffffffffffffffffffffffffffffffffffff1673ffffffffffffffffffffffffffffffffffffffff16815260200190815260200160002060006101000a81548160ff02191690831515021790555080806200017e9062000c16565b915050620000f2565b50731820a4b7618bde71dce8cdc73aab6c95905fad2473ffffffffffffffffffffffffffffffffffffffff166329965a1d307fac7fbab5f54a3ca8194167523c6753bfeb96a445279294b6125b68cce2177054306040518463ffffffff1660e01b8152600401620001fb9392919062000c8f565b600060405180830381600087803b1580156200021657600080fd5b505af11580156200022b573d6000803e3d6000fd5b50505050731820a4b7618bde71dce8cdc73aab6c95905fad2473ffffffffffffffffffffffffffffffffffffffff166329965a1d307faea199e31a596269b42cdafd93407f14436db6e4cad65417994c2eb37381e05a306040518463ffffffff1660e01b8152600401620002a29392919062000c8f565b600060405180830381600087803b158015620002bd57600080fd5b505af1158015620002d2573d6000803e3d6000fd5b505050505050506200030b338460405180602001604052806000815250604051806020016040528060008152506200035560201b60201c565b80600960006101000a81548173ffffffffffffffffffffffffffffffffffffffff021916908373ffffffffffffffffffffffffffffffffffffffff160217905550505050620010b4565b6200036b8484848460016200037160201b60201c565b50505050565b600073ffffffffffffffffffffffffffffffffffffffff168573ffffffffffffffffffffffffffffffffffffffff1603620003e3576040517f08c379a0000000000000000000000000000000000000000000000000000000008152600401620003da9062000d2d565b60405180910390fd5b6000620003f56200057160201b60201c565b90506200040c81600088886200057960201b60201c565b846001600082825462000420919062000d4f565b92505081905550846000808873ffffffffffffffffffffffffffffffffffffffff1673ffffffffffffffffffffffffffffffffffffffff168152602001908152602001600020600082825462000477919062000d4f565b925050819055506200049681600088888888886200057f60201b60201c565b8573ffffffffffffffffffffffffffffffffffffffff168173ffffffffffffffffffffffffffffffffffffffff167f2fe5be0146f74c5bce36c0b80911af6c7d86ff27e89d5cfa61fc681327954e5d878787604051620004f99392919062000e50565b60405180910390a38573ffffffffffffffffffffffffffffffffffffffff16600073ffffffffffffffffffffffffffffffffffffffff167fddf252ad1be2c89b69c2b068fc378daa952ba7f163c4a11628f55a4df523b3ef8760405162000561919062000e9b565b60405180910390a3505050505050565b600033905090565b50505050565b6000731820a4b7618bde71dce8cdc73aab6c95905fad2473ffffffffffffffffffffffffffffffffffffffff1663aabbb8ca877fb281fc8c12954d22544db45de3159a39272895b169a852b314f9cc762e44c53b6040518363ffffffff1660e01b8152600401620005f292919062000eb8565b602060405180830381865afa15801562000610573d6000803e3d6000fd5b505050506040513d601f19601f8201168201806040525081019062000636919062000ee5565b9050600073ffffffffffffffffffffffffffffffffffffffff168173ffffffffffffffffffffffffffffffffffffffff1614620006eb578073ffffffffffffffffffffffffffffffffffffffff166223de298989898989896040518763ffffffff1660e01b8152600401620006b19695949392919062000f17565b600060405180830381600087803b158015620006cc57600080fd5b505af1158015620006e1573d6000803e3d6000fd5b5050505062000763565b811562000762576200071e8673ffffffffffffffffffffffffffffffffffffffff166200076d60201b62000f511760201c565b1562000761576040517f08c379a000000000000000000000000000000000000000000000000000000000815260040162000758906200102e565b60405180910390fd5b5b5b5050505050505050565b6000808273ffffffffffffffffffffffffffffffffffffffff163b119050919050565b8280546200079e906200107f565b90600052602060002090601f016020900481019282620007c257600085556200080e565b82601f10620007dd57805160ff19168380011785556200080e565b828001600101855582156200080e579182015b828111156200080d578251825591602001919060010190620007f0565b5b5090506200081d9190620008b0565b5090565b8280548282559060005260206000209081019282156200089d579160200282015b828111156200089c5782518260006101000a81548173ffffffffffffffffffffffffffffffffffffffff021916908373ffffffffffffffffffffffffffffffffffffffff1602179055509160200191906001019062000842565b5b509050620008ac9190620008b0565b5090565b5b80821115620008cb576000816000905550600101620008b1565b5090565b6000604051905090565b600080fd5b600080fd5b6000819050919050565b620008f881620008e3565b81146200090457600080fd5b50565b6000815190506200091881620008ed565b92915050565b600080fd5b6000601f19601f8301169050919050565b7f4e487b7100000000000000000000000000000000000000000000000000000000600052604160045260246000fd5b6200096e8262000923565b810181811067ffffffffffffffff8211171562000990576200098f62000934565b5b80604052505050565b6000620009a5620008cf565b9050620009b3828262000963565b919050565b600067ffffffffffffffff821115620009d657620009d562000934565b5b602082029050602081019050919050565b600080fd5b600073ffffffffffffffffffffffffffffffffffffffff82169050919050565b600062000a1982620009ec565b9050919050565b62000a2b8162000a0c565b811462000a3757600080fd5b50565b60008151905062000a4b8162000a20565b92915050565b600062000a6862000a6284620009b8565b62000999565b9050808382526020820190506020840283018581111562000a8e5762000a8d620009e7565b5b835b8181101562000abb578062000aa6888262000a3a565b84526020840193505060208101905062000a90565b5050509392505050565b600082601f83011262000add5762000adc6200091e565b5b815162000aef84826020860162000a51565b91505092915050565b600062000b0582620009ec565b9050919050565b62000b178162000af8565b811462000b2357600080fd5b50565b60008151905062000b378162000b0c565b92915050565b60008060006060848603121562000b595762000b58620008d9565b5b600062000b698682870162000907565b935050602084015167ffffffffffffffff81111562000b8d5762000b8c620008de565b5b62000b9b8682870162000ac5565b925050604062000bae8682870162000b26565b9150509250925092565b7f4e487b7100000000000000000000000000000000000000000000000000000000600052603260045260246000fd5b7f4e487b7100000000000000000000000000000000000000000000000000000000600052601160045260246000fd5b600062000c2382620008e3565b91507fffffffffffffffffffffffffffffffffffffffffffffffffffffffffffffffff820362000c585762000c5762000be7565b5b600182019050919050565b62000c6e8162000a0c565b82525050565b6000819050919050565b62000c898162000c74565b82525050565b600060608201905062000ca6600083018662000c63565b62000cb5602083018562000c7e565b62000cc4604083018462000c63565b949350505050565b600082825260208201905092915050565b7f4552433737373a206d696e7420746f20746865207a65726f2061646472657373600082015250565b600062000d1560208362000ccc565b915062000d228262000cdd565b602082019050919050565b6000602082019050818103600083015262000d488162000d06565b9050919050565b600062000d5c82620008e3565b915062000d6983620008e3565b9250827fffffffffffffffffffffffffffffffffffffffffffffffffffffffffffffffff0382111562000da15762000da062000be7565b5b828201905092915050565b62000db781620008e3565b82525050565b600081519050919050565b600082825260208201905092915050565b60005b8381101562000df957808201518184015260208101905062000ddc565b8381111562000e09576000848401525b50505050565b600062000e1c8262000dbd565b62000e28818562000dc8565b935062000e3a81856020860162000dd9565b62000e458162000923565b840191505092915050565b600060608201905062000e67600083018662000dac565b818103602083015262000e7b818562000e0f565b9050818103604083015262000e91818462000e0f565b9050949350505050565b600060208201905062000eb2600083018462000dac565b92915050565b600060408201905062000ecf600083018562000c63565b62000ede602083018462000c7e565b9392505050565b60006020828403121562000efe5762000efd620008d9565b5b600062000f0e8482850162000a3a565b91505092915050565b600060c08201905062000f2e600083018962000c63565b62000f3d602083018862000c63565b62000f4c604083018762000c63565b62000f5b606083018662000dac565b818103608083015262000f6f818562000e0f565b905081810360a083015262000f85818462000e0f565b9050979650505050505050565b7f4552433737373a20746f6b656e20726563697069656e7420636f6e747261637460008201527f20686173206e6f20696d706c656d656e74657220666f7220455243373737546f60208201527f6b656e73526563697069656e7400000000000000000000000000000000000000604082015250565b600062001016604d8362000ccc565b9150620010238262000f92565b606082019050919050565b60006020820190508181036000830152620010498162001007565b9050919050565b7f4e487b7100000000000000000000000000000000000000000000000000000000600052602260045260246000fd5b600060028204905060018216806200109857607f821691505b602082108103620010ae57620010ad62001050565b5b50919050565b612bf580620010c46000396000f3fe608060405234801561001057600080fd5b50600436106101215760003560e01c806383197ef0116100ad578063d95b637111610071578063d95b6371146102f8578063dd62ed3e14610328578063fad8b32a14610358578063fc673c4f14610374578063fe9d93031461039057610121565b806383197ef014610268578063959b8c3f1461027257806395d89b411461028e5780639bd9bbc6146102ac578063a9059cbb146102c857610121565b806323b872dd116100f457806323b872dd146101b0578063313ce567146101e0578063556f0dc7146101fe57806362ad1b831461021c57806370a082311461023857610121565b806306e485381461012657806306fdde0314610144578063095ea7b31461016257806318160ddd14610192575b600080fd5b61012e6103ac565b60405161013b9190611b8a565b60405180910390f35b61014c61043a565b6040516101599190611c45565b60405180910390f35b61017c60048036038101906101779190611cdd565b6104cc565b6040516101899190611d38565b60405180910390f35b61019a6104ef565b6040516101a79190611d62565b60405180910390f35b6101ca60048036038101906101c59190611d7d565b6104f9565b6040516101d79190611d38565b60405180910390f35b6101e861054a565b6040516101f59190611dec565b60405180910390f35b610206610553565b6040516102139190611d62565b60405180910390f35b61023660048036038101906102319190611f3c565b61055c565b005b610252600480360381019061024d9190611fef565b6105c2565b60405161025f9190611d62565b60405180910390f35b61027061060a565b005b61028c60048036038101906102879190611fef565b6106d5565b005b610296610935565b6040516102a39190611c45565b60405180910390f35b6102c660048036038101906102c1919061201c565b6109c7565b005b6102e260048036038101906102dd9190611cdd565b6109f1565b6040516102ef9190611d38565b60405180910390f35b610312600480360381019061030d919061208b565b610a31565b60405161031f9190611d38565b60405180910390f35b610342600480360381019061033d919061208b565b610be2565b60405161034f9190611d62565b60405180910390f35b610372600480360381019061036d9190611fef565b610c69565b005b61038e600480360381019061038991906120cb565b610ec9565b005b6103aa60048036038101906103a5919061216a565b610f2b565b005b6060600480548060200260200160405190810160405280929190818152602001828054801561043057602002820191906000526020600020905b8160009054906101000a900473ffffffffffffffffffffffffffffffffffffffff1673ffffffffffffffffffffffffffffffffffffffff16815260200190600101908083116103e6575b5050505050905090565b606060028054610449906121f5565b80601f0160208091040260200160405190810160405280929190818152602001828054610475906121f5565b80156104c25780601f10610497576101008083540402835291602001916104c2565b820191906000526020600020905b8154815290600101906020018083116104a557829003601f168201915b5050505050905090565b6000806104d7610f74565b90506104e4818585610f7c565b600191505092915050565b6000600154905090565b600080610504610f74565b9050610511858285611145565b61053e858585604051806020016040528060008152506040518060200160405280600081525060006111d1565b60019150509392505050565b60006012905090565b60006001905090565b61056d610567610f74565b86610a31565b6105ac576040517f08c379a00000000000000000000000000000000000000000000000000000000081526004016105a390612298565b60405180910390fd5b6105bb858585858560016111d1565b5050505050565b60008060008373ffffffffffffffffffffffffffffffffffffffff1673ffffffffffffffffffffffffffffffffffffffff168152602001908152602001600020549050919050565b600960009054906101000a900473ffffffffffffffffffffffffffffffffffffffff1673ffffffffffffffffffffffffffffffffffffffff163373ffffffffffffffffffffffffffffffffffffffff161461069a576040517f08c379a000000000000000000000000000000000000000000000000000000000815260040161069190612304565b60405180910390fd5b600960009054906101000a900473ffffffffffffffffffffffffffffffffffffffff1673ffffffffffffffffffffffffffffffffffffffff16ff5b8073ffffffffffffffffffffffffffffffffffffffff166106f4610f74565b73ffffffffffffffffffffffffffffffffffffffff160361074a576040517f08c379a000000000000000000000000000000000000000000000000000000000815260040161074190612396565b60405180910390fd5b600560008273ffffffffffffffffffffffffffffffffffffffff1673ffffffffffffffffffffffffffffffffffffffff16815260200190815260200160002060009054906101000a900460ff161561083457600760006107a8610f74565b73ffffffffffffffffffffffffffffffffffffffff1673ffffffffffffffffffffffffffffffffffffffff16815260200190815260200160002060008273ffffffffffffffffffffffffffffffffffffffff1673ffffffffffffffffffffffffffffffffffffffff16815260200190815260200160002060006101000a81549060ff02191690556108d1565b600160066000610842610f74565b73ffffffffffffffffffffffffffffffffffffffff1673ffffffffffffffffffffffffffffffffffffffff16815260200190815260200160002060008373ffffffffffffffffffffffffffffffffffffffff1673ffffffffffffffffffffffffffffffffffffffff16815260200190815260200160002060006101000a81548160ff0219169083151502179055505b6108d9610f74565b73ffffffffffffffffffffffffffffffffffffffff168173ffffffffffffffffffffffffffffffffffffffff167ff4caeb2d6ca8932a215a353d0703c326ec2d81fc68170f320eb2ab49e9df61f960405160405180910390a350565b606060038054610944906121f5565b80601f0160208091040260200160405190810160405280929190818152602001828054610970906121f5565b80156109bd5780601f10610992576101008083540402835291602001916109bd565b820191906000526020600020905b8154815290600101906020018083116109a057829003601f168201915b5050505050905090565b6109ec6109d2610f74565b8484846040518060200160405280600081525060016111d1565b505050565b6000610a276109fe610f74565b8484604051806020016040528060008152506040518060200160405280600081525060006111d1565b6001905092915050565b60008173ffffffffffffffffffffffffffffffffffffffff168373ffffffffffffffffffffffffffffffffffffffff161480610b495750600560008473ffffffffffffffffffffffffffffffffffffffff1673ffffffffffffffffffffffffffffffffffffffff16815260200190815260200160002060009054906101000a900460ff168015610b485750600760008373ffffffffffffffffffffffffffffffffffffffff1673ffffffffffffffffffffffffffffffffffffffff16815260200190815260200160002060008473ffffffffffffffffffffffffffffffffffffffff1673ffffffffffffffffffffffffffffffffffffffff16815260200190815260200160002060009054906101000a900460ff16155b5b80610bda5750600660008373ffffffffffffffffffffffffffffffffffffffff1673ffffffffffffffffffffffffffffffffffffffff16815260200190815260200160002060008473ffffffffffffffffffffffffffffffffffffffff1673ffffffffffffffffffffffffffffffffffffffff16815260200190815260200160002060009054906101000a900460ff165b905092915050565b6000600860008473ffffffffffffffffffffffffffffffffffffffff1673ffffffffffffffffffffffffffffffffffffffff16815260200190815260200160002060008373ffffffffffffffffffffffffffffffffffffffff1673ffffffffffffffffffffffffffffffffffffffff16815260200190815260200160002054905092915050565b610c71610f74565b73ffffffffffffffffffffffffffffffffffffffff168173ffffffffffffffffffffffffffffffffffffffff1603610cde576040517f08c379a0000000000000000000000000000000000000000000000000000000008152600401610cd590612428565b60405180910390fd5b600560008273ffffffffffffffffffffffffffffffffffffffff1673ffffffffffffffffffffffffffffffffffffffff16815260200190815260200160002060009054906101000a900460ff1615610dd157600160076000610d3e610f74565b73ffffffffffffffffffffffffffffffffffffffff1673ffffffffffffffffffffffffffffffffffffffff16815260200190815260200160002060008373ffffffffffffffffffffffffffffffffffffffff1673ffffffffffffffffffffffffffffffffffffffff16815260200190815260200160002060006101000a81548160ff021916908315150217905550610e65565b60066000610ddd610f74565b73ffffffffffffffffffffffffffffffffffffffff1673ffffffffffffffffffffffffffffffffffffffff16815260200190815260200160002060008273ffffffffffffffffffffffffffffffffffffffff1673ffffffffffffffffffffffffffffffffffffffff16815260200190815260200160002060006101000a81549060ff02191690555b610e6d610f74565b73ffffffffffffffffffffffffffffffffffffffff168173ffffffffffffffffffffffffffffffffffffffff167f50546e66e5f44d728365dc3908c63bc5cfeeab470722c1677e3073a6ac294aa160405160405180910390a350565b610eda610ed4610f74565b85610a31565b610f19576040517f08c379a0000000000000000000000000000000000000000000000000000000008152600401610f1090612298565b60405180910390fd5b610f25848484846112ef565b50505050565b610f4d610f36610f74565b8383604051806020016040528060008152506112ef565b5050565b6000808273ffffffffffffffffffffffffffffffffffffffff163b119050919050565b600033905090565b600073ffffffffffffffffffffffffffffffffffffffff168373ffffffffffffffffffffffffffffffffffffffff1603610feb576040517f08c379a0000000000000000000000000000000000000000000000000000000008152600401610fe2906124ba565b60405180910390fd5b600073ffffffffffffffffffffffffffffffffffffffff168273ffffffffffffffffffffffffffffffffffffffff160361105a576040517f08c379a00000000000000000000000000000000000000000000000000000000081526004016110519061254c565b60405180910390fd5b80600860008573ffffffffffffffffffffffffffffffffffffffff1673ffffffffffffffffffffffffffffffffffffffff16815260200190815260200160002060008473ffffffffffffffffffffffffffffffffffffffff1673ffffffffffffffffffffffffffffffffffffffff168152602001908152602001600020819055508173ffffffffffffffffffffffffffffffffffffffff168373ffffffffffffffffffffffffffffffffffffffff167f8c5be1e5ebec7d5bd14f71427d1e84f3dd0314c0f7b2291e5b200ac8c7c3b925836040516111389190611d62565b60405180910390a3505050565b60006111518484610be2565b90507fffffffffffffffffffffffffffffffffffffffffffffffffffffffffffffffff81146111cb57818110156111bd576040517f08c379a00000000000000000000000000000000000000000000000000000000081526004016111b4906125b8565b60405180910390fd5b6111ca8484848403610f7c565b5b50505050565b600073ffffffffffffffffffffffffffffffffffffffff168673ffffffffffffffffffffffffffffffffffffffff1603611240576040517f08c379a00000000000000000000000000000000000000000000000000000000081526004016112379061264a565b60405180910390fd5b600073ffffffffffffffffffffffffffffffffffffffff168573ffffffffffffffffffffffffffffffffffffffff16036112af576040517f08c379a00000000000000000000000000000000000000000000000000000000081526004016112a6906126dc565b60405180910390fd5b60006112b9610f74565b90506112c9818888888888611541565b6112d78188888888886116a8565b6112e6818888888888886118c2565b50505050505050565b600073ffffffffffffffffffffffffffffffffffffffff168473ffffffffffffffffffffffffffffffffffffffff160361135e576040517f08c379a00000000000000000000000000000000000000000000000000000000081526004016113559061276e565b60405180910390fd5b6000611368610f74565b905061137981866000878787611541565b6113868186600087611a94565b60008060008773ffffffffffffffffffffffffffffffffffffffff1673ffffffffffffffffffffffffffffffffffffffff1681526020019081526020016000205490508481101561140c576040517f08c379a000000000000000000000000000000000000000000000000000000000815260040161140390612800565b60405180910390fd5b8481036000808873ffffffffffffffffffffffffffffffffffffffff1673ffffffffffffffffffffffffffffffffffffffff168152602001908152602001600020819055508460016000828254611463919061284f565b925050819055508573ffffffffffffffffffffffffffffffffffffffff168273ffffffffffffffffffffffffffffffffffffffff167fa78a9be3a7b862d26933ad85fb11d80ef66b8f972d7cbba06621d583943a40988787876040516114cb939291906128d8565b60405180910390a3600073ffffffffffffffffffffffffffffffffffffffff168673ffffffffffffffffffffffffffffffffffffffff167fddf252ad1be2c89b69c2b068fc378daa952ba7f163c4a11628f55a4df523b3ef876040516115319190611d62565b60405180910390a3505050505050565b6000731820a4b7618bde71dce8cdc73aab6c95905fad2473ffffffffffffffffffffffffffffffffffffffff1663aabbb8ca877f29ddb589b1fb5fc7cf394961c1adf5f8c6454761adf795e67fe149f658abe8956040518363ffffffff1660e01b81526004016115b2929190612945565b602060405180830381865afa1580156115cf573d6000803e3d6000fd5b505050506040513d601f19601f820116820180604052508101906115f39190612983565b9050600073ffffffffffffffffffffffffffffffffffffffff168173ffffffffffffffffffffffffffffffffffffffff161461169f578073ffffffffffffffffffffffffffffffffffffffff166375ab97828888888888886040518763ffffffff1660e01b815260040161166c969594939291906129b0565b600060405180830381600087803b15801561168657600080fd5b505af115801561169a573d6000803e3d6000fd5b505050505b50505050505050565b6116b486868686611a94565b60008060008773ffffffffffffffffffffffffffffffffffffffff1673ffffffffffffffffffffffffffffffffffffffff1681526020019081526020016000205490508381101561173a576040517f08c379a000000000000000000000000000000000000000000000000000000000815260040161173190612a91565b60405180910390fd5b8381036000808873ffffffffffffffffffffffffffffffffffffffff1673ffffffffffffffffffffffffffffffffffffffff16815260200190815260200160002081905550836000808773ffffffffffffffffffffffffffffffffffffffff1673ffffffffffffffffffffffffffffffffffffffff16815260200190815260200160002060008282546117cd9190612ab1565b925050819055508473ffffffffffffffffffffffffffffffffffffffff168673ffffffffffffffffffffffffffffffffffffffff168873ffffffffffffffffffffffffffffffffffffffff167f06b541ddaa720db2b10a4d0cdac39b8d360425fc073085fac19bc8261467798787878760405161184c939291906128d8565b60405180910390a48473ffffffffffffffffffffffffffffffffffffffff168673ffffffffffffffffffffffffffffffffffffffff167fddf252ad1be2c89b69c2b068fc378daa952ba7f163c4a11628f55a4df523b3ef866040516118b19190611d62565b60405180910390a350505050505050565b6000731820a4b7618bde71dce8cdc73aab6c95905fad2473ffffffffffffffffffffffffffffffffffffffff1663aabbb8ca877fb281fc8c12954d22544db45de3159a39272895b169a852b314f9cc762e44c53b6040518363ffffffff1660e01b8152600401611933929190612945565b602060405180830381865afa158015611950573d6000803e3d6000fd5b505050506040513d601f19601f820116820180604052508101906119749190612983565b9050600073ffffffffffffffffffffffffffffffffffffffff168173ffffffffffffffffffffffffffffffffffffffff1614611a23578073ffffffffffffffffffffffffffffffffffffffff166223de298989898989896040518763ffffffff1660e01b81526004016119ec969594939291906129b0565b600060405180830381600087803b158015611a0657600080fd5b505af1158015611a1a573d6000803e3d6000fd5b50505050611a8a565b8115611a8957611a488673ffffffffffffffffffffffffffffffffffffffff16610f51565b15611a88576040517f08c379a0000000000000000000000000000000000000000000000000000000008152600401611a7f90612b9f565b60405180910390fd5b5b5b5050505050505050565b50505050565b600081519050919050565b600082825260208201905092915050565b6000819050602082019050919050565b600073ffffffffffffffffffffffffffffffffffffffff82169050919050565b6000611af182611ac6565b9050919050565b611b0181611ae6565b82525050565b6000611b138383611af8565b60208301905092915050565b6000602082019050919050565b6000611b3782611a9a565b611b418185611aa5565b9350611b4c83611ab6565b8060005b83811015611b7d578151611b648882611b07565b9750611b6f83611b1f565b925050600181019050611b50565b5085935050505092915050565b60006020820190508181036000830152611ba48184611b2c565b905092915050565b600081519050919050565b600082825260208201905092915050565b60005b83811015611be6578082015181840152602081019050611bcb565b83811115611bf5576000848401525b50505050565b6000601f19601f8301169050919050565b6000611c1782611bac565b611c218185611bb7565b9350611c31818560208601611bc8565b611c3a81611bfb565b840191505092915050565b60006020820190508181036000830152611c5f8184611c0c565b905092915050565b6000604051905090565b600080fd5b600080fd5b611c8481611ae6565b8114611c8f57600080fd5b50565b600081359050611ca181611c7b565b92915050565b6000819050919050565b611cba81611ca7565b8114611cc557600080fd5b50565b600081359050611cd781611cb1565b92915050565b60008060408385031215611cf457611cf3611c71565b5b6000611d0285828601611c92565b9250506020611d1385828601611cc8565b9150509250929050565b60008115159050919050565b611d3281611d1d565b82525050565b6000602082019050611d4d6000830184611d29565b92915050565b611d5c81611ca7565b82525050565b6000602082019050611d776000830184611d53565b92915050565b600080600060608486031215611d9657611d95611c71565b5b6000611da486828701611c92565b9350506020611db586828701611c92565b9250506040611dc686828701611cc8565b9150509250925092565b600060ff82169050919050565b611de681611dd0565b82525050565b6000602082019050611e016000830184611ddd565b92915050565b600080fd5b600080fd5b7f4e487b7100000000000000000000000000000000000000000000000000000000600052604160045260246000fd5b611e4982611bfb565b810181811067ffffffffffffffff82111715611e6857611e67611e11565b5b80604052505050565b6000611e7b611c67565b9050611e878282611e40565b919050565b600067ffffffffffffffff821115611ea757611ea6611e11565b5b611eb082611bfb565b9050602081019050919050565b82818337600083830152505050565b6000611edf611eda84611e8c565b611e71565b905082815260208101848484011115611efb57611efa611e0c565b5b611f06848285611ebd565b509392505050565b600082601f830112611f2357611f22611e07565b5b8135611f33848260208601611ecc565b91505092915050565b600080600080600060a08688031215611f5857611f57611c71565b5b6000611f6688828901611c92565b9550506020611f7788828901611c92565b9450506040611f8888828901611cc8565b935050606086013567ffffffffffffffff811115611fa957611fa8611c76565b5b611fb588828901611f0e565b925050608086013567ffffffffffffffff811115611fd657611fd5611c76565b5b611fe288828901611f0e565b9150509295509295909350565b60006020828403121561200557612004611c71565b5b600061201384828501611c92565b91505092915050565b60008060006060848603121561203557612034611c71565b5b600061204386828701611c92565b935050602061205486828701611cc8565b925050604084013567ffffffffffffffff81111561207557612074611c76565b5b61208186828701611f0e565b9150509250925092565b600080604083850312156120a2576120a1611c71565b5b60006120b085828601611c92565b92505060206120c185828601611c92565b9150509250929050565b600080600080608085870312156120e5576120e4611c71565b5b60006120f387828801611c92565b945050602061210487828801611cc8565b935050604085013567ffffffffffffffff81111561212557612124611c76565b5b61213187828801611f0e565b925050606085013567ffffffffffffffff81111561215257612151611c76565b5b61215e87828801611f0e565b91505092959194509250565b6000806040838503121561218157612180611c71565b5b600061218f85828601611cc8565b925050602083013567ffffffffffffffff8111156121b0576121af611c76565b5b6121bc85828601611f0e565b9150509250929050565b7f4e487b7100000000000000000000000000000000000000000000000000000000600052602260045260246000fd5b6000600282049050600182168061220d57607f821691505b6020821081036122205761221f6121c6565b5b50919050565b7f4552433737373a2063616c6c6572206973206e6f7420616e206f70657261746f60008201527f7220666f7220686f6c6465720000000000000000000000000000000000000000602082015250565b6000612282602c83611bb7565b915061228d82612226565b604082019050919050565b600060208201905081810360008301526122b181612275565b9050919050565b7f43616c6c61626c6520627920636f6e7472616374206f776e6572206f6e6c7921600082015250565b60006122ee602083611bb7565b91506122f9826122b8565b602082019050919050565b6000602082019050818103600083015261231d816122e1565b9050919050565b7f4552433737373a20617574686f72697a696e672073656c66206173206f70657260008201527f61746f7200000000000000000000000000000000000000000000000000000000602082015250565b6000612380602483611bb7565b915061238b82612324565b604082019050919050565b600060208201905081810360008301526123af81612373565b9050919050565b7f4552433737373a207265766f6b696e672073656c66206173206f70657261746f60008201527f7200000000000000000000000000000000000000000000000000000000000000602082015250565b6000612412602183611bb7565b915061241d826123b6565b604082019050919050565b6000602082019050818103600083015261244181612405565b9050919050565b7f4552433737373a20617070726f76652066726f6d20746865207a65726f20616460008201527f6472657373000000000000000000000000000000000000000000000000000000602082015250565b60006124a4602583611bb7565b91506124af82612448565b604082019050919050565b600060208201905081810360008301526124d381612497565b9050919050565b7f4552433737373a20617070726f766520746f20746865207a65726f206164647260008201527f6573730000000000000000000000000000000000000000000000000000000000602082015250565b6000612536602383611bb7565b9150612541826124da565b604082019050919050565b6000602082019050818103600083015261256581612529565b9050919050565b7f4552433737373a20696e73756666696369656e7420616c6c6f77616e63650000600082015250565b60006125a2601e83611bb7565b91506125ad8261256c565b602082019050919050565b600060208201905081810360008301526125d181612595565b9050919050565b7f4552433737373a207472616e736665722066726f6d20746865207a65726f206160008201527f6464726573730000000000000000000000000000000000000000000000000000602082015250565b6000612634602683611bb7565b915061263f826125d8565b604082019050919050565b6000602082019050818103600083015261266381612627565b9050919050565b7f4552433737373a207472616e7366657220746f20746865207a65726f2061646460008201527f7265737300000000000000000000000000000000000000000000000000000000602082015250565b60006126c6602483611bb7565b91506126d18261266a565b604082019050919050565b600060208201905081810360008301526126f5816126b9565b9050919050565b7f4552433737373a206275726e2066726f6d20746865207a65726f20616464726560008201527f7373000000000000000000000000000000000000000000000000000000000000602082015250565b6000612758602283611bb7565b9150612763826126fc565b604082019050919050565b600060208201905081810360008301526127878161274b565b9050919050565b7f4552433737373a206275726e20616d6f756e7420657863656564732062616c6160008201527f6e63650000000000000000000000000000000000000000000000000000000000602082015250565b60006127ea602383611bb7565b91506127f58261278e565b604082019050919050565b60006020820190508181036000830152612819816127dd565b9050919050565b7f4e487b7100000000000000000000000000000000000000000000000000000000600052601160045260246000fd5b600061285a82611ca7565b915061286583611ca7565b92508282101561287857612877612820565b5b828203905092915050565b600081519050919050565b600082825260208201905092915050565b60006128aa82612883565b6128b4818561288e565b93506128c4818560208601611bc8565b6128cd81611bfb565b840191505092915050565b60006060820190506128ed6000830186611d53565b81810360208301526128ff818561289f565b90508181036040830152612913818461289f565b9050949350505050565b61292681611ae6565b82525050565b6000819050919050565b61293f8161292c565b82525050565b600060408201905061295a600083018561291d565b6129676020830184612936565b9392505050565b60008151905061297d81611c7b565b92915050565b60006020828403121561299957612998611c71565b5b60006129a78482850161296e565b91505092915050565b600060c0820190506129c5600083018961291d565b6129d2602083018861291d565b6129df604083018761291d565b6129ec6060830186611d53565b81810360808301526129fe818561289f565b905081810360a0830152612a12818461289f565b9050979650505050505050565b7f4552433737373a207472616e7366657220616d6f756e7420657863656564732060008201527f62616c616e636500000000000000000000000000000000000000000000000000602082015250565b6000612a7b602783611bb7565b9150612a8682612a1f565b604082019050919050565b60006020820190508181036000830152612aaa81612a6e565b9050919050565b6000612abc82611ca7565b9150612ac783611ca7565b9250827fffffffffffffffffffffffffffffffffffffffffffffffffffffffffffffffff03821115612afc57612afb612820565b5b828201905092915050565b7f4552433737373a20746f6b656e20726563697069656e7420636f6e747261637460008201527f20686173206e6f20696d706c656d656e74657220666f7220455243373737546f60208201527f6b656e73526563697069656e7400000000000000000000000000000000000000604082015250565b6000612b89604d83611bb7565b9150612b9482612b07565b606082019050919050565b60006020820190508181036000830152612bb881612b7c565b905091905056fea26469706673582212209b0ad86e13eb7db1f7917eecd13659b4740ffad6098fdae4e83dc8416cbf960764736f6c634300080e0033",
  "linkReferences": {},
  "deployedLinkReferences": {}
}