{
  "_format": "hh-sol-artifact-1",
  "contractName": "SimpleToken",
  "sourceName": "contracts/SimpleToken.sol",
  "abi": [
    {
      "inputs": [
        {
          "internalType": "uint256",
          "name": "initialSupply",
          "type": "uint256"
        },
        {
          "internalType": "address[]",
          "name": "defaultOperators",
          "type": "address[]"
        },
        {
          "internalType": "address payable",
          "name": "owner_",
          "type": "address"
        }
      ],
      "stateMutability": "nonpayable",
      "type": "constructor"
    },
    {
      "anonymous": false,
      "inputs": [
        {
          "indexed": true,
          "internalType": "address",
          "name": "owner",
          "type": "address"
        },
        {
          "indexed": true,
          "internalType": "address",
          "name": "spender",
          "type": "address"
        },
        {
          "indexed": false,
          "internalType": "uint256",
          "name": "value",
          "type": "uint256"
        }
      ],
      "name": "Approval",
      "type": "event"
    },
    {
      "anonymous": false,
      "inputs": [
        {
          "indexed": true,
          "internalType": "address",
          "name": "operator",
          "type": "address"
        },
        {
          "indexed": true,
          "internalType": "address",
          "name": "tokenHolder",
          "type": "address"
        }
      ],
      "name": "AuthorizedOperator",
      "type": "event"
    },
    {
      "anonymous": false,
      "inputs": [
        {
          "indexed": true,
          "internalType": "address",
          "name": "operator",
          "type": "address"
        },
        {
          "indexed": true,
          "internalType": "address",
          "name": "from",
          "type": "address"
        },
        {
          "indexed": false,
          "internalType": "uint256",
          "name": "amount",
          "type": "uint256"
        },
        {
          "indexed": false,
          "internalType": "bytes",
          "name": "data",
          "type": "bytes"
        },
        {
          "indexed": false,
          "internalType": "bytes",
          "name": "operatorData",
          "type": "bytes"
        }
      ],
      "name": "Burned",
      "type": "event"
    },
    {
      "anonymous": false,
      "inputs": [
        {
          "indexed": true,
          "internalType": "address",
          "name": "operator",
          "type": "address"
        },
        {
          "indexed": true,
          "internalType": "address",
          "name": "to",
          "type": "address"
        },
        {
          "indexed": false,
          "internalType": "uint256",
          "name": "amount",
          "type": "uint256"
        },
        {
          "indexed": false,
          "internalType": "bytes",
          "name": "data",
          "type": "bytes"
        },
        {
          "indexed": false,
          "internalType": "bytes",
          "name": "operatorData",
          "type": "bytes"
        }
      ],
      "name": "Minted",
      "type": "event"
    },
    {
      "anonymous": false,
      "inputs": [
        {
          "indexed": true,
          "internalType": "address",
          "name": "operator",
          "type": "address"
        },
        {
          "indexed": true,
          "internalType": "address",
          "name": "tokenHolder",
          "type": "address"
        }
      ],
      "name": "RevokedOperator",
      "type": "event"
    },
    {
      "anonymous": false,
      "inputs": [
        {
          "indexed": true,
          "internalType": "address",
          "name": "operator",
          "type": "address"
        },
        {
          "indexed": true,
          "internalType": "address",
          "name": "from",
          "type": "address"
        },
        {
          "indexed": true,
          "internalType": "address",
          "name": "to",
          "type": "address"
        },
        {
          "indexed": false,
          "internalType": "uint256",
          "name": "amount",
          "type": "uint256"
        },
        {
          "indexed": false,
          "internalType": "bytes",
          "name": "data",
          "type": "bytes"
        },
        {
          "indexed": false,
          "internalType": "bytes",
          "name": "operatorData",
          "type": "bytes"
        }
      ],
      "name": "Sent",
      "type": "event"
    },
    {
      "anonymous": false,
      "inputs": [
        {
          "indexed": true,
          "internalType": "address",
          "name": "from",
          "type": "address"
        },
        {
          "indexed": true,
          "internalType": "address",
          "name": "to",
          "type": "address"
        },
        {
          "indexed": false,
          "internalType": "uint256",
          "name": "value",
          "type": "uint256"
        }
      ],
      "name": "Transfer",
      "type": "event"
    },
    {
      "inputs": [
        {
          "internalType": "address",
          "name": "holder",
          "type": "address"
        },
        {
          "internalType": "address",
          "name": "spender",
          "type": "address"
        }
      ],
      "name": "allowance",
      "outputs": [
        {
          "internalType": "uint256",
          "name": "",
          "type": "uint256"
        }
      ],
      "stateMutability": "view",
      "type": "function"
    },
    {
      "inputs": [
        {
          "internalType": "address",
          "name": "spender",
          "type": "address"
        },
        {
          "internalType": "uint256",
          "name": "value",
          "type": "uint256"
        }
      ],
      "name": "approve",
      "outputs": [
        {
          "internalType": "bool",
          "name": "",
          "type": "bool"
        }
      ],
      "stateMutability": "nonpayable",
      "type": "function"
    },
    {
      "inputs": [
        {
          "internalType": "address",
          "name": "operator",
          "type": "address"
        }
      ],
      "name": "authorizeOperator",
      "outputs": [],
      "stateMutability": "nonpayable",
      "type": "function"
    },
    {
      "inputs": [
        {
          "internalType": "address",
          "name": "tokenHolder",
          "type": "address"
        }
      ],
      "name": "balanceOf",
      "outputs": [
        {
          "internalType": "uint256",
          "name": "",
          "type": "uint256"
        }
      ],
      "stateMutability": "view",
      "type": "function"
    },
    {
      "inputs": [
        {
          "internalType": "uint256",
          "name": "amount",
          "type": "uint256"
        },
        {
          "internalType": "bytes",
          "name": "data",
          "type": "bytes"
        }
      ],
      "name": "burn",
      "outputs": [],
      "stateMutability": "nonpayable",
      "type": "function"
    },
    {
      "inputs": [],
      "name": "decimals",
      "outputs": [
        {
          "internalType": "uint8",
          "name": "",
          "type": "uint8"
        }
      ],
      "stateMutability": "pure",
      "type": "function"
    },
    {
      "inputs": [],
      "name": "defaultOperators",
      "outputs": [
        {
          "internalType": "address[]",
          "name": "",
          "type": "address[]"
        }
      ],
      "stateMutability": "view",
      "type": "function"
    },
    {
      "inputs": [],
      "name": "destroy",
      "outputs": [],
      "stateMutability": "nonpayable",
      "type": "function"
    },
    {
      "inputs": [],
      "name": "granularity",
      "outputs": [
        {
          "internalType": "uint256",
          "name": "",
          "type": "uint256"
        }
      ],
      "stateMutability": "view",
      "type": "function"
    },
    {
      "inputs": [
        {
          "internalType": "address",
          "name": "operator",
          "type": "address"
        },
        {
          "internalType": "address",
          "name": "tokenHolder",
          "type": "address"
        }
      ],
      "name": "isOperatorFor",
      "outputs": [
        {
          "internalType": "bool",
          "name": "",
          "type": "bool"
        }
      ],
      "stateMutability": "view",
      "type": "function"
    },
    {
      "inputs": [],
      "name": "name",
      "outputs": [
        {
          "internalType": "string",
          "name": "",
          "type": "string"
        }
      ],
      "stateMutability": "view",
      "type": "function"
    },
    {
      "inputs": [
        {
          "internalType": "address",
          "name": "account",
          "type": "address"
        },
        {
          "internalType": "uint256",
          "name": "amount",
          "type": "uint256"
        },
        {
          "internalType": "bytes",
          "name": "data",
          "type": "bytes"
        },
        {
          "internalType": "bytes",
          "name": "operatorData",
          "type": "bytes"
        }
      ],
      "name": "operatorBurn",
      "outputs": [],
      "stateMutability": "nonpayable",
      "type": "function"
    },
    {
      "inputs": [
        {
          "internalType": "address",
          "name": "sender",
          "type": "address"
        },
        {
          "internalType": "address",
          "name": "recipient",
          "type": "address"
        },
        {
          "internalType": "uint256",
          "name": "amount",
          "type": "uint256"
        },
        {
          "internalType": "bytes",
          "name": "data",
          "type": "bytes"
        },
        {
          "internalType": "bytes",
          "name": "operatorData",
          "type": "bytes"
        }
      ],
      "name": "operatorSend",
      "outputs": [],
      "stateMutability": "nonpayable",
      "type": "function"
    },
    {
      "inputs": [
        {
          "internalType": "address",
          "name": "operator",
          "type": "address"
        }
      ],
      "name": "revokeOperator",
      "outputs": [],
      "stateMutability": "nonpayable",
      "type": "function"
    },
    {
      "inputs": [
        {
          "internalType": "address",
          "name": "recipient",
          "type": "address"
        },
        {
          "internalType": "uint256",
          "name": "amount",
          "type": "uint256"
        },
        {
          "internalType": "bytes",
          "name": "data",
          "type": "bytes"
        }
      ],
      "name": "send",
      "outputs": [],
      "stateMutability": "nonpayable",
      "type": "function"
    },
    {
      "inputs": [],
      "name": "symbol",
      "outputs": [
        {
          "internalType": "string",
          "name": "",
          "type": "string"
        }
      ],
      "stateMutability": "view",
      "type": "function"
    },
    {
      "inputs": [],
      "name": "totalSupply",
      "outputs": [
        {
          "internalType": "uint256",
          "name": "",
          "type": "uint256"
        }
      ],
      "stateMutability": "view",
      "type": "function"
    },
    {
      "inputs": [
        {
          "internalType": "address",
          "name": "recipient",
          "type": "address"
        },
        {
          "internalType": "uint256",
          "name": "amount",
          "type": "uint256"
        }
      ],
      "name": "transfer",
      "outputs": [
        {
          "internalType": "bool",
          "name": "",
          "type": "bool"
        }
      ],
      "stateMutability": "nonpayable",
      "type": "function"
    },
    {
      "inputs": [
        {
          "internalType": "address",
          "name": "holder",
          "type": "address"
        },
        {
          "internalType": "address",
          "name": "recipient",
          "type": "address"
        },
        {
          "internalType": "uint256",
          "name": "amount",
          "type": "uint256"
        }
      ],
      "name": "transferFrom",
      "outputs": [
        {
          "internalType": "bool",
          "name": "",
          "type": "bool"
        }
      ],
      "stateMutability": "nonpayable",
      "type": "function"
    }
  ],
  "bytecode": "0x60806040523480156200001157600080fd5b506040516200325d3803806200325d8339818101604052810190620000379190620007e7565b6040518060400160405280600b81526020017f53696d706c65546f6b656e0000000000000000000000000000000000000000008152506040518060400160405280600381526020017f53494d0000000000000000000000000000000000000000000000000000000000815250838260029080519060200190620000bc9291906200043a565b508160039080519060200190620000d59291906200043a565b508060049080519060200190620000ee929190620004cb565b5060005b8151811015620001875760016005600084848151811062000118576200011762000862565b5b602002602001015173ffffffffffffffffffffffffffffffffffffffff1673ffffffffffffffffffffffffffffffffffffffff16815260200190815260200160002060006101000a81548160ff02191690831515021790555080806200017e90620008c0565b915050620000f2565b50505050620001bd338460405180602001604052806000815250604051806020016040528060008152506200020760201b60201c565b80600960006101000a81548173ffffffffffffffffffffffffffffffffffffffff021916908373ffffffffffffffffffffffffffffffffffffffff16021790555050505062000b5d565b6200021d8484848460016200022360201b60201c565b50505050565b600073ffffffffffffffffffffffffffffffffffffffff168573ffffffffffffffffffffffffffffffffffffffff160362000295576040517f08c379a00000000000000000000000000000000000000000000000000000000081526004016200028c906200096e565b60405180910390fd5b6000620002a76200042360201b60201c565b9050620002be81600088886200042b60201b60201c565b8460016000828254620002d2919062000990565b92505081905550846000808873ffffffffffffffffffffffffffffffffffffffff1673ffffffffffffffffffffffffffffffffffffffff168152602001908152602001600020600082825462000329919062000990565b925050819055506200034881600088888888886200043160201b60201c565b8573ffffffffffffffffffffffffffffffffffffffff168173ffffffffffffffffffffffffffffffffffffffff167f2fe5be0146f74c5bce36c0b80911af6c7d86ff27e89d5cfa61fc681327954e5d878787604051620003ab9392919062000a91565b60405180910390a38573ffffffffffffffffffffffffffffffffffffffff16600073ffffffffffffffffffffffffffffffffffffffff167fddf252ad1be2c89b69c2b068fc378daa952ba7f163c4a11628f55a4df523b3ef8760405162000413919062000adc565b60405180910390a3505050505050565b600033905090565b50505050565b50505050505050565b828054620004489062000b28565b90600052602060002090601f0160209004810192826200046c5760008555620004b8565b82601f106200048757805160ff1916838001178555620004b8565b82800160010185558215620004b8579182015b82811115620004b75782518255916020019190600101906200049a565b5b509050620004c791906200055a565b5090565b82805482825590600052602060002090810192821562000547579160200282015b82811115620005465782518260006101000a81548173ffffffffffffffffffffffffffffffffffffffff021916908373ffffffffffffffffffffffffffffffffffffffff16021790555091602001919060010190620004ec565b5b5090506200055691906200055a565b5090565b5b80821115620005755760008160009055506001016200055b565b5090565b6000604051905090565b600080fd5b600080fd5b6000819050919050565b620005a2816200058d565b8114620005ae57600080fd5b50565b600081519050620005c28162000597565b92915050565b600080fd5b6000601f19601f8301169050919050565b7f4e487b7100000000000000000000000000000000000000000000000000000000600052604160045260246000fd5b6200061882620005cd565b810181811067ffffffffffffffff821117156200063a5762000639620005de565b5b80604052505050565b60006200064f62000579565b90506200065d82826200060d565b919050565b600067ffffffffffffffff82111562000680576200067f620005de565b5b602082029050602081019050919050565b600080fd5b600073ffffffffffffffffffffffffffffffffffffffff82169050919050565b6000620006c38262000696565b9050919050565b620006d581620006b6565b8114620006e157600080fd5b50565b600081519050620006f581620006ca565b92915050565b6000620007126200070c8462000662565b62000643565b9050808382526020820190506020840283018581111562000738576200073762000691565b5b835b81811015620007655780620007508882620006e4565b8452602084019350506020810190506200073a565b5050509392505050565b600082601f830112620007875762000786620005c8565b5b815162000799848260208601620006fb565b91505092915050565b6000620007af8262000696565b9050919050565b620007c181620007a2565b8114620007cd57600080fd5b50565b600081519050620007e181620007b6565b92915050565b60008060006060848603121562000803576200080262000583565b5b60006200081386828701620005b1565b935050602084015167ffffffffffffffff81111562000837576200083662000588565b5b62000845868287016200076f565b92505060406200085886828701620007d0565b9150509250925092565b7f4e487b7100000000000000000000000000000000000000000000000000000000600052603260045260246000fd5b7f4e487b7100000000000000000000000000000000000000000000000000000000600052601160045260246000fd5b6000620008cd826200058d565b91507fffffffffffffffffffffffffffffffffffffffffffffffffffffffffffffffff820362000902576200090162000891565b5b600182019050919050565b600082825260208201905092915050565b7f4552433737373a206d696e7420746f20746865207a65726f2061646472657373600082015250565b6000620009566020836200090d565b915062000963826200091e565b602082019050919050565b60006020820190508181036000830152620009898162000947565b9050919050565b60006200099d826200058d565b9150620009aa836200058d565b9250827fffffffffffffffffffffffffffffffffffffffffffffffffffffffffffffffff03821115620009e257620009e162000891565b5b828201905092915050565b620009f8816200058d565b82525050565b600081519050919050565b600082825260208201905092915050565b60005b8381101562000a3a57808201518184015260208101905062000a1d565b8381111562000a4a576000848401525b50505050565b600062000a5d82620009fe565b62000a69818562000a09565b935062000a7b81856020860162000a1a565b62000a8681620005cd565b840191505092915050565b600060608201905062000aa86000830186620009ed565b818103602083015262000abc818562000a50565b9050818103604083015262000ad2818462000a50565b9050949350505050565b600060208201905062000af36000830184620009ed565b92915050565b7f4e487b7100000000000000000000000000000000000000000000000000000000600052602260045260246000fd5b6000600282049050600182168062000b4157607f821691505b60208210810362000b575762000b5662000af9565b5b50919050565b6126f08062000b6d6000396000f3fe608060405234801561001057600080fd5b50600436106101215760003560e01c806383197ef0116100ad578063d95b637111610071578063d95b6371146102f8578063dd62ed3e14610328578063fad8b32a14610358578063fc673c4f14610374578063fe9d93031461039057610121565b806383197ef014610268578063959b8c3f1461027257806395d89b411461028e5780639bd9bbc6146102ac578063a9059cbb146102c857610121565b806323b872dd116100f457806323b872dd146101b0578063313ce567146101e0578063556f0dc7146101fe57806362ad1b831461021c57806370a082311461023857610121565b806306e485381461012657806306fdde0314610144578063095ea7b31461016257806318160ddd14610192575b600080fd5b61012e6103ac565b60405161013b919061183f565b60405180910390f35b61014c61043a565b60405161015991906118fa565b60405180910390f35b61017c60048036038101906101779190611992565b6104cc565b60405161018991906119ed565b60405180910390f35b61019a6104ef565b6040516101a79190611a17565b60405180910390f35b6101ca60048036038101906101c59190611a32565b6104f9565b6040516101d791906119ed565b60405180910390f35b6101e861054a565b6040516101f59190611aa1565b60405180910390f35b610206610553565b6040516102139190611a17565b60405180910390f35b61023660048036038101906102319190611bf1565b61055c565b005b610252600480360381019061024d9190611ca4565b6105c2565b60405161025f9190611a17565b60405180910390f35b61027061060a565b005b61028c60048036038101906102879190611ca4565b6106d5565b005b610296610935565b6040516102a391906118fa565b60405180910390f35b6102c660048036038101906102c19190611cd1565b6109c7565b005b6102e260048036038101906102dd9190611992565b6109f1565b6040516102ef91906119ed565b60405180910390f35b610312600480360381019061030d9190611d40565b610a31565b60405161031f91906119ed565b60405180910390f35b610342600480360381019061033d9190611d40565b610be2565b60405161034f9190611a17565b60405180910390f35b610372600480360381019061036d9190611ca4565b610c69565b005b61038e60048036038101906103899190611d80565b610ec9565b005b6103aa60048036038101906103a59190611e1f565b610f2b565b005b6060600480548060200260200160405190810160405280929190818152602001828054801561043057602002820191906000526020600020905b8160009054906101000a900473ffffffffffffffffffffffffffffffffffffffff1673ffffffffffffffffffffffffffffffffffffffff16815260200190600101908083116103e6575b5050505050905090565b60606002805461044990611eaa565b80601f016020809104026020016040519081016040528092919081815260200182805461047590611eaa565b80156104c25780601f10610497576101008083540402835291602001916104c2565b820191906000526020600020905b8154815290600101906020018083116104a557829003601f168201915b5050505050905090565b6000806104d7610f51565b90506104e4818585610f59565b600191505092915050565b6000600154905090565b600080610504610f51565b9050610511858285611122565b61053e858585604051806020016040528060008152506040518060200160405280600081525060006111ae565b60019150509392505050565b60006012905090565b60006001905090565b61056d610567610f51565b86610a31565b6105ac576040517f08c379a00000000000000000000000000000000000000000000000000000000081526004016105a390611f4d565b60405180910390fd5b6105bb858585858560016111ae565b5050505050565b60008060008373ffffffffffffffffffffffffffffffffffffffff1673ffffffffffffffffffffffffffffffffffffffff168152602001908152602001600020549050919050565b600960009054906101000a900473ffffffffffffffffffffffffffffffffffffffff1673ffffffffffffffffffffffffffffffffffffffff163373ffffffffffffffffffffffffffffffffffffffff161461069a576040517f08c379a000000000000000000000000000000000000000000000000000000000815260040161069190611fb9565b60405180910390fd5b600960009054906101000a900473ffffffffffffffffffffffffffffffffffffffff1673ffffffffffffffffffffffffffffffffffffffff16ff5b8073ffffffffffffffffffffffffffffffffffffffff166106f4610f51565b73ffffffffffffffffffffffffffffffffffffffff160361074a576040517f08c379a00000000000000000000000000000000000000000000000000000000081526004016107419061204b565b60405180910390fd5b600560008273ffffffffffffffffffffffffffffffffffffffff1673ffffffffffffffffffffffffffffffffffffffff16815260200190815260200160002060009054906101000a900460ff161561083457600760006107a8610f51565b73ffffffffffffffffffffffffffffffffffffffff1673ffffffffffffffffffffffffffffffffffffffff16815260200190815260200160002060008273ffffffffffffffffffffffffffffffffffffffff1673ffffffffffffffffffffffffffffffffffffffff16815260200190815260200160002060006101000a81549060ff02191690556108d1565b600160066000610842610f51565b73ffffffffffffffffffffffffffffffffffffffff1673ffffffffffffffffffffffffffffffffffffffff16815260200190815260200160002060008373ffffffffffffffffffffffffffffffffffffffff1673ffffffffffffffffffffffffffffffffffffffff16815260200190815260200160002060006101000a81548160ff0219169083151502179055505b6108d9610f51565b73ffffffffffffffffffffffffffffffffffffffff168173ffffffffffffffffffffffffffffffffffffffff167ff4caeb2d6ca8932a215a353d0703c326ec2d81fc68170f320eb2ab49e9df61f960405160405180910390a350565b60606003805461094490611eaa565b80601f016020809104026020016040519081016040528092919081815260200182805461097090611eaa565b80156109bd5780601f10610992576101008083540402835291602001916109bd565b820191906000526020600020905b8154815290600101906020018083116109a057829003601f168201915b5050505050905090565b6109ec6109d2610f51565b8484846040518060200160405280600081525060016111ae565b505050565b6000610a276109fe610f51565b8484604051806020016040528060008152506040518060200160405280600081525060006111ae565b6001905092915050565b60008173ffffffffffffffffffffffffffffffffffffffff168373ffffffffffffffffffffffffffffffffffffffff161480610b495750600560008473ffffffffffffffffffffffffffffffffffffffff1673ffffffffffffffffffffffffffffffffffffffff16815260200190815260200160002060009054906101000a900460ff168015610b485750600760008373ffffffffffffffffffffffffffffffffffffffff1673ffffffffffffffffffffffffffffffffffffffff16815260200190815260200160002060008473ffffffffffffffffffffffffffffffffffffffff1673ffffffffffffffffffffffffffffffffffffffff16815260200190815260200160002060009054906101000a900460ff16155b5b80610bda5750600660008373ffffffffffffffffffffffffffffffffffffffff1673ffffffffffffffffffffffffffffffffffffffff16815260200190815260200160002060008473ffffffffffffffffffffffffffffffffffffffff1673ffffffffffffffffffffffffffffffffffffffff16815260200190815260200160002060009054906101000a900460ff165b905092915050565b6000600860008473ffffffffffffffffffffffffffffffffffffffff1673ffffffffffffffffffffffffffffffffffffffff16815260200190815260200160002060008373ffffffffffffffffffffffffffffffffffffffff1673ffffffffffffffffffffffffffffffffffffffff16815260200190815260200160002054905092915050565b610c71610f51565b73ffffffffffffffffffffffffffffffffffffffff168173ffffffffffffffffffffffffffffffffffffffff1603610cde576040517f08c379a0000000000000000000000000000000000000000000000000000000008152600401610cd5906120dd565b60405180910390fd5b600560008273ffffffffffffffffffffffffffffffffffffffff1673ffffffffffffffffffffffffffffffffffffffff16815260200190815260200160002060009054906101000a900460ff1615610dd157600160076000610d3e610f51565b73ffffffffffffffffffffffffffffffffffffffff1673ffffffffffffffffffffffffffffffffffffffff16815260200190815260200160002060008373ffffffffffffffffffffffffffffffffffffffff1673ffffffffffffffffffffffffffffffffffffffff16815260200190815260200160002060006101000a81548160ff021916908315150217905550610e65565b60066000610ddd610f51565b73ffffffffffffffffffffffffffffffffffffffff1673ffffffffffffffffffffffffffffffffffffffff16815260200190815260200160002060008273ffffffffffffffffffffffffffffffffffffffff1673ffffffffffffffffffffffffffffffffffffffff16815260200190815260200160002060006101000a81549060ff02191690555b610e6d610f51565b73ffffffffffffffffffffffffffffffffffffffff168173ffffffffffffffffffffffffffffffffffffffff167f50546e66e5f44d728365dc3908c63bc5cfeeab470722c1677e3073a6ac294aa160405160405180910390a350565b610eda610ed4610f51565b85610a31565b610f19576040517f08c379a0000000000000000000000000000000000000000000000000000000008152600401610f1090611f4d565b60405180910390fd5b610f25848484846112cc565b50505050565b610f4d610f36610f51565b8383604051806020016040528060008152506112cc565b5050565b600033905090565b600073ffffffffffffffffffffffffffffffffffffffff168373ffffffffffffffffffffffffffffffffffffffff1603610fc8576040517f08c379a0000000000000000000000000000000000000000000000000000000008152600401610fbf9061216f565b60405180910390fd5b600073ffffffffffffffffffffffffffffffffffffffff168273ffffffffffffffffffffffffffffffffffffffff1603611037576040517f08c379a000000000000000000000000000000000000000000000000000000000815260040161102e90612201565b60405180910390fd5b80600860008573ffffffffffffffffffffffffffffffffffffffff1673ffffffffffffffffffffffffffffffffffffffff16815260200190815260200160002060008473ffffffffffffffffffffffffffffffffffffffff1673ffffffffffffffffffffffffffffffffffffffff168152602001908152602001600020819055508173ffffffffffffffffffffffffffffffffffffffff168373ffffffffffffffffffffffffffffffffffffffff167f8c5be1e5ebec7d5bd14f71427d1e84f3dd0314c0f7b2291e5b200ac8c7c3b925836040516111159190611a17565b60405180910390a3505050565b600061112e8484610be2565b90507fffffffffffffffffffffffffffffffffffffffffffffffffffffffffffffffff81146111a8578181101561119a576040517f08c379a00000000000000000000000000000000000000000000000000000000081526004016111919061226d565b60405180910390fd5b6111a78484848403610f59565b5b50505050565b600073ffffffffffffffffffffffffffffffffffffffff168673ffffffffffffffffffffffffffffffffffffffff160361121d576040517f08c379a0000000000000000000000000000000000000000000000000000000008152600401611214906122ff565b60405180910390fd5b600073ffffffffffffffffffffffffffffffffffffffff168573ffffffffffffffffffffffffffffffffffffffff160361128c576040517f08c379a000000000000000000000000000000000000000000000000000000000815260040161128390612391565b60405180910390fd5b6000611296610f51565b90506112a681888888888861151e565b6112b4818888888888611526565b6112c381888888888888611740565b50505050505050565b600073ffffffffffffffffffffffffffffffffffffffff168473ffffffffffffffffffffffffffffffffffffffff160361133b576040517f08c379a000000000000000000000000000000000000000000000000000000000815260040161133290612423565b60405180910390fd5b6000611345610f51565b90506113568186600087878761151e565b6113638186600087611749565b60008060008773ffffffffffffffffffffffffffffffffffffffff1673ffffffffffffffffffffffffffffffffffffffff168152602001908152602001600020549050848110156113e9576040517f08c379a00000000000000000000000000000000000000000000000000000000081526004016113e0906124b5565b60405180910390fd5b8481036000808873ffffffffffffffffffffffffffffffffffffffff1673ffffffffffffffffffffffffffffffffffffffff1681526020019081526020016000208190555084600160008282546114409190612504565b925050819055508573ffffffffffffffffffffffffffffffffffffffff168273ffffffffffffffffffffffffffffffffffffffff167fa78a9be3a7b862d26933ad85fb11d80ef66b8f972d7cbba06621d583943a40988787876040516114a89392919061258d565b60405180910390a3600073ffffffffffffffffffffffffffffffffffffffff168673ffffffffffffffffffffffffffffffffffffffff167fddf252ad1be2c89b69c2b068fc378daa952ba7f163c4a11628f55a4df523b3ef8760405161150e9190611a17565b60405180910390a3505050505050565b505050505050565b61153286868686611749565b60008060008773ffffffffffffffffffffffffffffffffffffffff1673ffffffffffffffffffffffffffffffffffffffff168152602001908152602001600020549050838110156115b8576040517f08c379a00000000000000000000000000000000000000000000000000000000081526004016115af90612644565b60405180910390fd5b8381036000808873ffffffffffffffffffffffffffffffffffffffff1673ffffffffffffffffffffffffffffffffffffffff16815260200190815260200160002081905550836000808773ffffffffffffffffffffffffffffffffffffffff1673ffffffffffffffffffffffffffffffffffffffff168152602001908152602001600020600082825461164b9190612664565b925050819055508473ffffffffffffffffffffffffffffffffffffffff168673ffffffffffffffffffffffffffffffffffffffff168873ffffffffffffffffffffffffffffffffffffffff167f06b541ddaa720db2b10a4d0cdac39b8d360425fc073085fac19bc826146779878787876040516116ca9392919061258d565b60405180910390a48473ffffffffffffffffffffffffffffffffffffffff168673ffffffffffffffffffffffffffffffffffffffff167fddf252ad1be2c89b69c2b068fc378daa952ba7f163c4a11628f55a4df523b3ef8660405161172f9190611a17565b60405180910390a350505050505050565b50505050505050565b50505050565b600081519050919050565b600082825260208201905092915050565b6000819050602082019050919050565b600073ffffffffffffffffffffffffffffffffffffffff82169050919050565b60006117a68261177b565b9050919050565b6117b68161179b565b82525050565b60006117c883836117ad565b60208301905092915050565b6000602082019050919050565b60006117ec8261174f565b6117f6818561175a565b93506118018361176b565b8060005b8381101561183257815161181988826117bc565b9750611824836117d4565b925050600181019050611805565b5085935050505092915050565b6000602082019050818103600083015261185981846117e1565b905092915050565b600081519050919050565b600082825260208201905092915050565b60005b8381101561189b578082015181840152602081019050611880565b838111156118aa576000848401525b50505050565b6000601f19601f8301169050919050565b60006118cc82611861565b6118d6818561186c565b93506118e681856020860161187d565b6118ef816118b0565b840191505092915050565b6000602082019050818103600083015261191481846118c1565b905092915050565b6000604051905090565b600080fd5b600080fd5b6119398161179b565b811461194457600080fd5b50565b60008135905061195681611930565b92915050565b6000819050919050565b61196f8161195c565b811461197a57600080fd5b50565b60008135905061198c81611966565b92915050565b600080604083850312156119a9576119a8611926565b5b60006119b785828601611947565b92505060206119c88582860161197d565b9150509250929050565b60008115159050919050565b6119e7816119d2565b82525050565b6000602082019050611a0260008301846119de565b92915050565b611a118161195c565b82525050565b6000602082019050611a2c6000830184611a08565b92915050565b600080600060608486031215611a4b57611a4a611926565b5b6000611a5986828701611947565b9350506020611a6a86828701611947565b9250506040611a7b8682870161197d565b9150509250925092565b600060ff82169050919050565b611a9b81611a85565b82525050565b6000602082019050611ab66000830184611a92565b92915050565b600080fd5b600080fd5b7f4e487b7100000000000000000000000000000000000000000000000000000000600052604160045260246000fd5b611afe826118b0565b810181811067ffffffffffffffff82111715611b1d57611b1c611ac6565b5b80604052505050565b6000611b3061191c565b9050611b3c8282611af5565b919050565b600067ffffffffffffffff821115611b5c57611b5b611ac6565b5b611b65826118b0565b9050602081019050919050565b82818337600083830152505050565b6000611b94611b8f84611b41565b611b26565b905082815260208101848484011115611bb057611baf611ac1565b5b611bbb848285611b72565b509392505050565b600082601f830112611bd857611bd7611abc565b5b8135611be8848260208601611b81565b91505092915050565b600080600080600060a08688031215611c0d57611c0c611926565b5b6000611c1b88828901611947565b9550506020611c2c88828901611947565b9450506040611c3d8882890161197d565b935050606086013567ffffffffffffffff811115611c5e57611c5d61192b565b5b611c6a88828901611bc3565b925050608086013567ffffffffffffffff811115611c8b57611c8a61192b565b5b611c9788828901611bc3565b9150509295509295909350565b600060208284031215611cba57611cb9611926565b5b6000611cc884828501611947565b91505092915050565b600080600060608486031215611cea57611ce9611926565b5b6000611cf886828701611947565b9350506020611d098682870161197d565b925050604084013567ffffffffffffffff811115611d2a57611d2961192b565b5b611d3686828701611bc3565b9150509250925092565b60008060408385031215611d5757611d56611926565b5b6000611d6585828601611947565b9250506020611d7685828601611947565b9150509250929050565b60008060008060808587031215611d9a57611d99611926565b5b6000611da887828801611947565b9450506020611db98782880161197d565b935050604085013567ffffffffffffffff811115611dda57611dd961192b565b5b611de687828801611bc3565b925050606085013567ffffffffffffffff811115611e0757611e0661192b565b5b611e1387828801611bc3565b91505092959194509250565b60008060408385031215611e3657611e35611926565b5b6000611e448582860161197d565b925050602083013567ffffffffffffffff811115611e6557611e6461192b565b5b611e7185828601611bc3565b9150509250929050565b7f4e487b7100000000000000000000000000000000000000000000000000000000600052602260045260246000fd5b60006002820490506001821680611ec257607f821691505b602082108103611ed557611ed4611e7b565b5b50919050565b7f4552433737373a2063616c6c6572206973206e6f7420616e206f70657261746f60008201527f7220666f7220686f6c6465720000000000000000000000000000000000000000602082015250565b6000611f37602c8361186c565b9150611f4282611edb565b604082019050919050565b60006020820190508181036000830152611f6681611f2a565b9050919050565b7f43616c6c61626c6520627920636f6e7472616374206f776e6572206f6e6c7921600082015250565b6000611fa360208361186c565b9150611fae82611f6d565b602082019050919050565b60006020820190508181036000830152611fd281611f96565b9050919050565b7f4552433737373a20617574686f72697a696e672073656c66206173206f70657260008201527f61746f7200000000000000000000000000000000000000000000000000000000602082015250565b600061203560248361186c565b915061204082611fd9565b604082019050919050565b6000602082019050818103600083015261206481612028565b9050919050565b7f4552433737373a207265766f6b696e672073656c66206173206f70657261746f60008201527f7200000000000000000000000000000000000000000000000000000000000000602082015250565b60006120c760218361186c565b91506120d28261206b565b604082019050919050565b600060208201905081810360008301526120f6816120ba565b9050919050565b7f4552433737373a20617070726f76652066726f6d20746865207a65726f20616460008201527f6472657373000000000000000000000000000000000000000000000000000000602082015250565b600061215960258361186c565b9150612164826120fd565b604082019050919050565b600060208201905081810360008301526121888161214c565b9050919050565b7f4552433737373a20617070726f766520746f20746865207a65726f206164647260008201527f6573730000000000000000000000000000000000000000000000000000000000602082015250565b60006121eb60238361186c565b91506121f68261218f565b604082019050919050565b6000602082019050818103600083015261221a816121de565b9050919050565b7f4552433737373a20696e73756666696369656e7420616c6c6f77616e63650000600082015250565b6000612257601e8361186c565b915061226282612221565b602082019050919050565b600060208201905081810360008301526122868161224a565b9050919050565b7f4552433737373a207472616e736665722066726f6d20746865207a65726f206160008201527f6464726573730000000000000000000000000000000000000000000000000000602082015250565b60006122e960268361186c565b91506122f48261228d565b604082019050919050565b60006020820190508181036000830152612318816122dc565b9050919050565b7f4552433737373a207472616e7366657220746f20746865207a65726f2061646460008201527f7265737300000000000000000000000000000000000000000000000000000000602082015250565b600061237b60248361186c565b91506123868261231f565b604082019050919050565b600060208201905081810360008301526123aa8161236e565b9050919050565b7f4552433737373a206275726e2066726f6d20746865207a65726f20616464726560008201527f7373000000000000000000000000000000000000000000000000000000000000602082015250565b600061240d60228361186c565b9150612418826123b1565b604082019050919050565b6000602082019050818103600083015261243c81612400565b9050919050565b7f4552433737373a206275726e20616d6f756e7420657863656564732062616c6160008201527f6e63650000000000000000000000000000000000000000000000000000000000602082015250565b600061249f60238361186c565b91506124aa82612443565b604082019050919050565b600060208201905081810360008301526124ce81612492565b9050919050565b7f4e487b7100000000000000000000000000000000000000000000000000000000600052601160045260246000fd5b600061250f8261195c565b915061251a8361195c565b92508282101561252d5761252c6124d5565b5b828203905092915050565b600081519050919050565b600082825260208201905092915050565b600061255f82612538565b6125698185612543565b935061257981856020860161187d565b612582816118b0565b840191505092915050565b60006060820190506125a26000830186611a08565b81810360208301526125b48185612554565b905081810360408301526125c88184612554565b9050949350505050565b7f4552433737373a207472616e7366657220616d6f756e7420657863656564732060008201527f62616c616e636500000000000000000000000000000000000000000000000000602082015250565b600061262e60278361186c565b9150612639826125d2565b604082019050919050565b6000602082019050818103600083015261265d81612621565b9050919050565b600061266f8261195c565b915061267a8361195c565b9250827fffffffffffffffffffffffffffffffffffffffffffffffffffffffffffffffff038211156126af576126ae6124d5565b5b82820190509291505056fea26469706673582212206cbfc250d8ed22e20cd2a6ca9661e53bb861392c3770cdf8ecee75039cff5e2364736f6c634300080e0033",
  "linkReferences": {},
  "deployedLinkReferences": {}
}